{
  "_format": "hh-sol-artifact-1",
  "contractName": "Marketplace",
  "sourceName": "src/backend/contracts/Marketplace.sol",
  "abi": [
    {
      "inputs": [
        {
          "internalType": "uint256",
          "name": "_feePercent",
          "type": "uint256"
        }
      ],
      "stateMutability": "nonpayable",
      "type": "constructor"
    },
    {
      "anonymous": false,
      "inputs": [
        {
          "indexed": false,
          "internalType": "uint256",
          "name": "itemId",
          "type": "uint256"
        },
        {
          "indexed": false,
          "internalType": "uint256",
          "name": "tokenID",
          "type": "uint256"
        },
        {
          "indexed": false,
          "internalType": "uint256",
          "name": "price",
          "type": "uint256"
        },
        {
          "indexed": false,
          "internalType": "uint256",
          "name": "royalties",
          "type": "uint256"
        },
        {
          "indexed": true,
          "internalType": "address",
          "name": "nft",
          "type": "address"
        },
        {
          "indexed": true,
          "internalType": "address",
          "name": "nftOwner",
          "type": "address"
        },
        {
          "indexed": true,
          "internalType": "address",
          "name": "buyer",
          "type": "address"
        }
      ],
      "name": "Bought",
      "type": "event"
    },
    {
      "anonymous": false,
      "inputs": [
        {
          "indexed": false,
          "internalType": "address",
          "name": "_contract",
          "type": "address"
        },
        {
          "indexed": false,
          "internalType": "bytes32",
          "name": "salt",
          "type": "bytes32"
        }
      ],
      "name": "Deployed",
      "type": "event"
    },
    {
      "anonymous": false,
      "inputs": [
        {
          "indexed": false,
          "internalType": "uint256",
          "name": "itemId",
          "type": "uint256"
        },
        {
          "indexed": true,
          "internalType": "address",
          "name": "nft",
          "type": "address"
        },
        {
          "indexed": false,
          "internalType": "uint256",
          "name": "tokenID",
          "type": "uint256"
        },
        {
          "indexed": false,
          "internalType": "uint256",
          "name": "price",
          "type": "uint256"
        },
        {
          "indexed": false,
          "internalType": "uint256",
          "name": "_royalties",
          "type": "uint256"
        },
        {
          "indexed": true,
          "internalType": "address",
          "name": "nftOwner",
          "type": "address"
        }
      ],
      "name": "Offered",
      "type": "event"
    },
    {
      "inputs": [
        {
          "internalType": "string",
          "name": "_name",
          "type": "string"
        },
        {
          "internalType": "string",
          "name": "_tokenURI",
          "type": "string"
        }
      ],
      "name": "createNFTCollection",
      "outputs": [
        {
          "internalType": "address",
          "name": "collectionAddress",
          "type": "address"
        }
      ],
      "stateMutability": "nonpayable",
      "type": "function"
    },
    {
      "inputs": [],
      "name": "feeAccount",
      "outputs": [
        {
          "internalType": "address payable",
          "name": "",
          "type": "address"
        }
      ],
      "stateMutability": "view",
      "type": "function"
    },
    {
      "inputs": [],
      "name": "feePercent",
      "outputs": [
        {
          "internalType": "uint256",
          "name": "",
          "type": "uint256"
        }
      ],
      "stateMutability": "view",
      "type": "function"
    },
    {
      "inputs": [
        {
          "internalType": "uint256",
          "name": "_itemId",
          "type": "uint256"
        }
      ],
      "name": "getTotalPrice",
      "outputs": [
        {
          "internalType": "uint256",
          "name": "",
          "type": "uint256"
        }
      ],
      "stateMutability": "view",
      "type": "function"
    },
    {
      "inputs": [],
      "name": "itemCount",
      "outputs": [
        {
          "internalType": "uint256",
          "name": "",
          "type": "uint256"
        }
      ],
      "stateMutability": "view",
      "type": "function"
    },
    {
      "inputs": [
        {
          "internalType": "uint256",
          "name": "",
          "type": "uint256"
        }
      ],
      "name": "items",
      "outputs": [
        {
          "internalType": "uint256",
          "name": "itemId",
          "type": "uint256"
        },
        {
          "internalType": "uint256",
          "name": "tokenID",
          "type": "uint256"
        },
        {
          "internalType": "uint256",
          "name": "price",
          "type": "uint256"
        },
        {
          "internalType": "uint256",
          "name": "royalties",
          "type": "uint256"
        },
        {
          "internalType": "contract IERC721",
          "name": "nft",
          "type": "address"
        },
        {
          "internalType": "address payable",
          "name": "nftOwner",
          "type": "address"
        },
        {
          "internalType": "address payable",
          "name": "creator",
          "type": "address"
        },
        {
          "internalType": "bool",
          "name": "sold",
          "type": "bool"
        }
      ],
      "stateMutability": "view",
      "type": "function"
    },
    {
      "inputs": [
        {
          "internalType": "contract IERC721",
          "name": "_nft",
          "type": "address"
        },
        {
          "internalType": "uint256",
          "name": "_tokenId",
          "type": "uint256"
        },
        {
          "internalType": "uint256",
          "name": "_price",
          "type": "uint256"
        },
        {
          "internalType": "uint256",
          "name": "_royalties",
          "type": "uint256"
        }
      ],
      "name": "makeItem",
      "outputs": [],
      "stateMutability": "nonpayable",
      "type": "function"
    },
    {
      "inputs": [
        {
          "internalType": "uint256",
          "name": "_itemId",
          "type": "uint256"
        }
      ],
      "name": "purchaseItem",
      "outputs": [],
      "stateMutability": "payable",
      "type": "function"
    },
    {
      "inputs": [
        {
          "internalType": "contract IERC721",
          "name": "_nft",
          "type": "address"
        },
        {
          "internalType": "uint256",
          "name": "_itemId",
          "type": "uint256"
        },
        {
          "internalType": "uint256",
          "name": "_price",
          "type": "uint256"
        }
      ],
      "name": "sellItem",
      "outputs": [],
      "stateMutability": "nonpayable",
      "type": "function"
    }
  ],
  "bytecode": "0x60c06040523480156200001157600080fd5b50604051620053483803806200534883398181016040528101906200003791906200009c565b60016000819055503373ffffffffffffffffffffffffffffffffffffffff1660808173ffffffffffffffffffffffffffffffffffffffff1660601b815250508060a0818152505050620000ec565b6000815190506200009681620000d2565b92915050565b600060208284031215620000af57600080fd5b6000620000bf8482850162000085565b91505092915050565b6000819050919050565b620000dd81620000c8565b8114620000e957600080fd5b50565b60805160601c60a05161522562000123600039600081816109960152610a730152600081816102780152610ce401526152256000f3fe608060405260043610620000925760003560e01c80636bfb0d0111620000615780636bfb0d0114620001675780637fd6f15c1462000197578063bfb231d214620001c7578063ca7dd3751462000212578063d38ea5bf14620002565762000092565b806365e17c9d146200009757806366223a1814620000c757806368915327146200010b578063696aae081462000139575b600080fd5b348015620000a457600080fd5b50620000af62000276565b604051620000be919062001490565b60405180910390f35b348015620000d457600080fd5b50620000f36004803603810190620000ed919062001179565b6200029a565b60405162000102919062001473565b60405180910390f35b3480156200011857600080fd5b50620001376004803603810190620001319190620010b7565b620003e1565b005b3480156200014657600080fd5b506200016560048036038101906200015f91906200110d565b62000637565b005b3480156200017457600080fd5b506200017f6200098e565b6040516200018e91906200165b565b60405180910390f35b348015620001a457600080fd5b50620001af62000994565b604051620001be91906200165b565b60405180910390f35b348015620001d457600080fd5b50620001f36004803603810190620001ed9190620011ec565b620009b8565b60405162000209989796959493929190620016c5565b60405180910390f35b3480156200021f57600080fd5b506200023e6004803603810190620002389190620011ec565b62000a6d565b6040516200024d91906200165b565b60405180910390f35b6200027460048036038101906200026e9190620011ec565b62000ad6565b005b7f000000000000000000000000000000000000000000000000000000000000000081565b60008060405180602001620002af9062000faf565b6020820181038252601f19601f820116604052509050600084604051602001620002da91906200145a565b604051602081830303815290604052805190602001209050808251602084016000f59250823b6200030a57600080fd5b7f94bfd9af14ef450884c8a7ddb5734e2e1e14e70a1c84f0801cc5a29e34d2642883826040516200033d929190620014ea565b60405180910390a18273ffffffffffffffffffffffffffffffffffffffff16630f143d1d85336040518363ffffffff1660e01b81526004016200038292919062001517565b602060405180830381600087803b1580156200039d57600080fd5b505af1158015620003b2573d6000803e3d6000fd5b505050506040513d601f19601f82011682018060405250810190620003d8919062001218565b50505092915050565b3373ffffffffffffffffffffffffffffffffffffffff168373ffffffffffffffffffffffffffffffffffffffff16636352211e846040518263ffffffff1660e01b81526004016200043391906200165b565b60206040518083038186803b1580156200044c57600080fd5b505afa15801562000461573d6000803e3d6000fd5b505050506040513d601f19601f820116820180604052508101906200048791906200108b565b73ffffffffffffffffffffffffffffffffffffffff1614620004e0576040517f08c379a0000000000000000000000000000000000000000000000000000000008152600401620004d7906200156d565b60405180910390fd5b6000811162000526576040517f08c379a00000000000000000000000000000000000000000000000000000000081526004016200051d906200158f565b60405180910390fd5b6000600260008481526020019081526020016000209050600115158160060160149054906101000a900460ff1615151462000598576040517f08c379a00000000000000000000000000000000000000000000000000000000081526004016200058f906200154b565b60405180910390fd5b60008160060160146101000a81548160ff0219169083151502179055508181600201819055508373ffffffffffffffffffffffffffffffffffffffff166323b872dd3330866040518463ffffffff1660e01b8152600401620005fd93929190620014ad565b600060405180830381600087803b1580156200061857600080fd5b505af11580156200062d573d6000803e3d6000fd5b5050505050505050565b6002600054141562000680576040517f08c379a0000000000000000000000000000000000000000000000000000000008152600401620006779062001617565b60405180910390fd5b600260008190555081600010620006ce576040517f08c379a0000000000000000000000000000000000000000000000000000000008152600401620006c590620015d3565b60405180910390fd5b60016000815480929190620006e39062001a29565b91905055508373ffffffffffffffffffffffffffffffffffffffff166323b872dd3330866040518463ffffffff1660e01b81526004016200072793929190620014ad565b600060405180830381600087803b1580156200074257600080fd5b505af115801562000757573d6000803e3d6000fd5b5050505060405180610100016040528060015481526020018481526020018381526020018281526020018573ffffffffffffffffffffffffffffffffffffffff1681526020013373ffffffffffffffffffffffffffffffffffffffff1681526020013373ffffffffffffffffffffffffffffffffffffffff168152602001600015158152506002600060015481526020019081526020016000206000820151816000015560208201518160010155604082015181600201556060820151816003015560808201518160040160006101000a81548173ffffffffffffffffffffffffffffffffffffffff021916908373ffffffffffffffffffffffffffffffffffffffff16021790555060a08201518160050160006101000a81548173ffffffffffffffffffffffffffffffffffffffff021916908373ffffffffffffffffffffffffffffffffffffffff16021790555060c08201518160060160006101000a81548173ffffffffffffffffffffffffffffffffffffffff021916908373ffffffffffffffffffffffffffffffffffffffff16021790555060e08201518160060160146101000a81548160ff0219169083151502179055509050503373ffffffffffffffffffffffffffffffffffffffff168473ffffffffffffffffffffffffffffffffffffffff167f8a7207dec41e68d1fbb358baac1c6ead9b1741d156d9bb551ae56d77c4a04e9360015486868660405162000978949392919062001678565b60405180910390a3600160008190555050505050565b60015481565b7f000000000000000000000000000000000000000000000000000000000000000081565b60026020528060005260406000206000915090508060000154908060010154908060020154908060030154908060040160009054906101000a900473ffffffffffffffffffffffffffffffffffffffff16908060050160009054906101000a900473ffffffffffffffffffffffffffffffffffffffff16908060060160009054906101000a900473ffffffffffffffffffffffffffffffffffffffff16908060060160149054906101000a900460ff16905088565b600060647f0000000000000000000000000000000000000000000000000000000000000000606462000aa09190620017d9565b600260008581526020019081526020016000206002015462000ac391906200186e565b62000acf919062001836565b9050919050565b6002600054141562000b1f576040517f08c379a000000000000000000000000000000000000000000000000000000000815260040162000b169062001617565b60405180910390fd5b6002600081905550600062000b348262000a6d565b9050600060026000848152602001908152602001600020905060008311801562000b6057506001548311155b62000ba2576040517f08c379a000000000000000000000000000000000000000000000000000000000815260040162000b9990620015b1565b60405180910390fd5b8134101562000be8576040517f08c379a000000000000000000000000000000000000000000000000000000000815260040162000bdf90620015f5565b60405180910390fd5b8060060160149054906101000a900460ff161562000c3d576040517f08c379a000000000000000000000000000000000000000000000000000000000815260040162000c349062001639565b60405180910390fd5b600060648260030154836002015462000c5791906200186e565b62000c63919062001836565b90508160050160009054906101000a900473ffffffffffffffffffffffffffffffffffffffff1673ffffffffffffffffffffffffffffffffffffffff166108fc82846002015462000cb59190620018cf565b9081150290604051600060405180830381858888f1935050505015801562000ce1573d6000803e3d6000fd5b507f000000000000000000000000000000000000000000000000000000000000000073ffffffffffffffffffffffffffffffffffffffff166108fc83600201548562000d2e9190620018cf565b9081150290604051600060405180830381858888f1935050505015801562000d5a573d6000803e3d6000fd5b50600081111562000dd2578160060160009054906101000a900473ffffffffffffffffffffffffffffffffffffffff1673ffffffffffffffffffffffffffffffffffffffff166108fc829081150290604051600060405180830381858888f1935050505015801562000dd0573d6000803e3d6000fd5b505b8160040160009054906101000a900473ffffffffffffffffffffffffffffffffffffffff1673ffffffffffffffffffffffffffffffffffffffff166323b872dd303385600101546040518463ffffffff1660e01b815260040162000e3993929190620014ad565b600060405180830381600087803b15801562000e5457600080fd5b505af115801562000e69573d6000803e3d6000fd5b505050503373ffffffffffffffffffffffffffffffffffffffff168260050160009054906101000a900473ffffffffffffffffffffffffffffffffffffffff1673ffffffffffffffffffffffffffffffffffffffff168360040160009054906101000a900473ffffffffffffffffffffffffffffffffffffffff1673ffffffffffffffffffffffffffffffffffffffff167f018ba1a6d68b05f27d982bf5b47fa8949139ad3467ba2ad4740127f762c7b3b387866001015487600201548760405162000f39949392919062001678565b60405180910390a460018260060160146101000a81548160ff021916908315150217905550338260050160006101000a81548173ffffffffffffffffffffffffffffffffffffffff021916908373ffffffffffffffffffffffffffffffffffffffff160217905550505050600160008190555050565b6135448062001cac83390190565b600062000fd462000fce846200177c565b62001753565b90508281526020810184848401111562000fed57600080fd5b62000ffa848285620019ae565b509392505050565b600081519050620010138162001c5d565b92915050565b6000813590506200102a8162001c77565b92915050565b600082601f8301126200104257600080fd5b81356200105484826020860162000fbd565b91505092915050565b6000813590506200106e8162001c91565b92915050565b600081519050620010858162001c91565b92915050565b6000602082840312156200109e57600080fd5b6000620010ae8482850162001002565b91505092915050565b600080600060608486031215620010cd57600080fd5b6000620010dd8682870162001019565b9350506020620010f0868287016200105d565b925050604062001103868287016200105d565b9150509250925092565b600080600080608085870312156200112457600080fd5b6000620011348782880162001019565b945050602062001147878288016200105d565b93505060406200115a878288016200105d565b92505060606200116d878288016200105d565b91505092959194509250565b600080604083850312156200118d57600080fd5b600083013567ffffffffffffffff811115620011a857600080fd5b620011b68582860162001030565b925050602083013567ffffffffffffffff811115620011d457600080fd5b620011e28582860162001030565b9150509250929050565b600060208284031215620011ff57600080fd5b60006200120f848285016200105d565b91505092915050565b6000602082840312156200122b57600080fd5b60006200123b8482850162001074565b91505092915050565b6200124f816200191e565b82525050565b62001260816200190a565b82525050565b620012718162001932565b82525050565b62001282816200193e565b82525050565b620012938162001986565b82525050565b6000620012a682620017b2565b620012b28185620017bd565b9350620012c4818560208601620019bd565b620012cf8162001b04565b840191505092915050565b6000620012e782620017b2565b620012f38185620017ce565b935062001305818560208601620019bd565b80840191505092915050565b600062001320601b83620017bd565b91506200132d8262001b15565b602082019050919050565b600062001347601883620017bd565b9150620013548262001b3e565b602082019050919050565b60006200136e600a83620017bd565b91506200137b8262001b67565b602082019050919050565b600062001395601283620017bd565b9150620013a28262001b90565b602082019050919050565b6000620013bc602083620017bd565b9150620013c98262001bb9565b602082019050919050565b6000620013e3601f83620017bd565b9150620013f08262001be2565b602082019050919050565b60006200140a601f83620017bd565b9150620014178262001c0b565b602082019050919050565b600062001431601183620017bd565b91506200143e8262001c34565b602082019050919050565b62001454816200197c565b82525050565b6000620014688284620012da565b915081905092915050565b60006020820190506200148a600083018462001255565b92915050565b6000602082019050620014a7600083018462001244565b92915050565b6000606082019050620014c4600083018662001255565b620014d3602083018562001255565b620014e2604083018462001449565b949350505050565b600060408201905062001501600083018562001255565b62001510602083018462001277565b9392505050565b6000604082019050818103600083015262001533818562001299565b905062001544602083018462001255565b9392505050565b60006020820190508181036000830152620015668162001311565b9050919050565b60006020820190508181036000830152620015888162001338565b9050919050565b60006020820190508181036000830152620015aa816200135f565b9050919050565b60006020820190508181036000830152620015cc8162001386565b9050919050565b60006020820190508181036000830152620015ee81620013ad565b9050919050565b600060208201905081810360008301526200161081620013d4565b9050919050565b600060208201905081810360008301526200163281620013fb565b9050919050565b60006020820190508181036000830152620016548162001422565b9050919050565b600060208201905062001672600083018462001449565b92915050565b60006080820190506200168f600083018762001449565b6200169e602083018662001449565b620016ad604083018562001449565b620016bc606083018462001449565b95945050505050565b600061010082019050620016dd600083018b62001449565b620016ec602083018a62001449565b620016fb604083018962001449565b6200170a606083018862001449565b62001719608083018762001288565b6200172860a083018662001244565b6200173760c083018562001244565b6200174660e083018462001266565b9998505050505050505050565b60006200175f62001772565b90506200176d8282620019f3565b919050565b6000604051905090565b600067ffffffffffffffff8211156200179a576200179962001ad5565b5b620017a58262001b04565b9050602081019050919050565b600081519050919050565b600082825260208201905092915050565b600081905092915050565b6000620017e6826200197c565b9150620017f3836200197c565b9250827fffffffffffffffffffffffffffffffffffffffffffffffffffffffffffffffff038211156200182b576200182a62001a77565b5b828201905092915050565b600062001843826200197c565b915062001850836200197c565b92508262001863576200186262001aa6565b5b828204905092915050565b60006200187b826200197c565b915062001888836200197c565b9250817fffffffffffffffffffffffffffffffffffffffffffffffffffffffffffffffff0483118215151615620018c457620018c362001a77565b5b828202905092915050565b6000620018dc826200197c565b9150620018e9836200197c565b925082821015620018ff57620018fe62001a77565b5b828203905092915050565b600062001917826200195c565b9050919050565b60006200192b826200195c565b9050919050565b60008115159050919050565b6000819050919050565b600062001955826200190a565b9050919050565b600073ffffffffffffffffffffffffffffffffffffffff82169050919050565b6000819050919050565b600062001993826200199a565b9050919050565b6000620019a7826200195c565b9050919050565b82818337600083830152505050565b60005b83811015620019dd578082015181840152602081019050620019c0565b83811115620019ed576000848401525b50505050565b620019fe8262001b04565b810181811067ffffffffffffffff8211171562001a205762001a1f62001ad5565b5b80604052505050565b600062001a36826200197c565b91507fffffffffffffffffffffffffffffffffffffffffffffffffffffffffffffffff82141562001a6c5762001a6b62001a77565b5b600182019050919050565b7f4e487b7100000000000000000000000000000000000000000000000000000000600052601160045260246000fd5b7f4e487b7100000000000000000000000000000000000000000000000000000000600052601260045260246000fd5b7f4e487b7100000000000000000000000000000000000000000000000000000000600052604160045260246000fd5b6000601f19601f8301169050919050565b7f54686973206e667420697320616c7265616479206f6e2073616c650000000000600082015250565b7f43616c6c6572206d75737420626520746865206f776e65720000000000000000600082015250565b7f46726565206e6674203f00000000000000000000000000000000000000000000600082015250565b7f6974656d20646f65736e27742065786973740000000000000000000000000000600082015250565b7f5072696365206d757374206265206772656174657220746872616e207a65726f600082015250565b7f4e6f7420656e6f75676820657468657220746f20636f76657220707269636500600082015250565b7f5265656e7472616e637947756172643a207265656e7472616e742063616c6c00600082015250565b7f4974656d20616c726561647920736f6c64000000000000000000000000000000600082015250565b62001c68816200190a565b811462001c7457600080fd5b50565b62001c828162001948565b811462001c8e57600080fd5b50565b62001c9c816200197c565b811462001ca857600080fd5b5056fe60806040523480156200001157600080fd5b506040518060400160405280600a81526020017f42727574616c204e4654000000000000000000000000000000000000000000008152506040518060400160405280600681526020017f42727574616c0000000000000000000000000000000000000000000000000000815250816000908051906020019062000096929190620000b8565b508060019080519060200190620000af929190620000b8565b505050620001cd565b828054620000c69062000168565b90600052602060002090601f016020900481019282620000ea576000855562000136565b82601f106200010557805160ff191683800117855562000136565b8280016001018555821562000136579182015b828111156200013557825182559160200191906001019062000118565b5b50905062000145919062000149565b5090565b5b80821115620001645760008160009055506001016200014a565b5090565b600060028204905060018216806200018157607f821691505b602082108114156200019857620001976200019e565b5b50919050565b7f4e487b7100000000000000000000000000000000000000000000000000000000600052602260045260246000fd5b61336780620001dd6000396000f3fe608060405234801561001057600080fd5b50600436106101215760003560e01c80636352211e116100ad578063b88d4fde11610071578063b88d4fde1461032e578063bfb231d21461034a578063c87b56dd1461037d578063e358ff99146103ad578063e985e9c5146103dd57610121565b80636352211e1461027657806370a08231146102a657806395d89b41146102d65780639f181b5e146102f4578063a22cb4651461031257610121565b8063095ea7b3116100f4578063095ea7b3146101d45780630f143d1d146101f057806323b872dd1461022057806342842e0e1461023c57806343bc16121461025857610121565b806301ffc9a714610126578063056b01ce1461015657806306fdde0314610186578063081812fc146101a4575b600080fd5b610140600480360381019061013b9190612171565b61040d565b60405161014d91906126fc565b60405180910390f35b610170600480360381019061016b9190612217565b6104ef565b60405161017d91906129ab565b60405180910390f35b61018e610639565b60405161019b9190612717565b60405180910390f35b6101be60048036038101906101b9919061226b565b6106cb565b6040516101cb9190612695565b60405180910390f35b6101ee60048036038101906101e99190612135565b610750565b005b61020a600480360381019061020591906121c3565b610868565b60405161021791906129ab565b60405180910390f35b61023a6004803603810190610235919061202f565b61090e565b005b6102566004803603810190610251919061202f565b61096e565b005b61026061098e565b60405161026d9190612695565b60405180910390f35b610290600480360381019061028b919061226b565b6109b4565b60405161029d9190612695565b60405180910390f35b6102c060048036038101906102bb9190611fca565b610a66565b6040516102cd91906129ab565b60405180910390f35b6102de610b1e565b6040516102eb9190612717565b60405180910390f35b6102fc610bb0565b60405161030991906129ab565b60405180910390f35b61032c600480360381019061032791906120f9565b610bb6565b005b6103486004803603810190610343919061207e565b610bcc565b005b610364600480360381019061035f919061226b565b610c2e565b60405161037494939291906129c6565b60405180910390f35b6103976004803603810190610392919061226b565b610d06565b6040516103a49190612717565b60405180910390f35b6103c760048036038101906103c2919061226b565b610e58565b6040516103d49190612989565b60405180910390f35b6103f760048036038101906103f29190611ff3565b610f81565b60405161040491906126fc565b60405180910390f35b60007f80ac58cd000000000000000000000000000000000000000000000000000000007bffffffffffffffffffffffffffffffffffffffffffffffffffffffff1916827bffffffffffffffffffffffffffffffffffffffffffffffffffffffff191614806104d857507f5b5e139f000000000000000000000000000000000000000000000000000000007bffffffffffffffffffffffffffffffffffffffffffffffffffffffff1916827bffffffffffffffffffffffffffffffffffffffffffffffffffffffff1916145b806104e857506104e782611015565b5b9050919050565b6000600a821115610535576040517f08c379a000000000000000000000000000000000000000000000000000000000815260040161052c90612969565b60405180910390fd5b6007600081548092919061054890612cc1565b91905055506105593360075461107f565b6105656007548461109d565b604051806080016040528060075481526020018381526020013373ffffffffffffffffffffffffffffffffffffffff16815260200184815250600960006007548152602001908152602001600020600082015181600001556020820151816001015560408201518160020160006101000a81548173ffffffffffffffffffffffffffffffffffffffff021916908373ffffffffffffffffffffffffffffffffffffffff160217905550606082015181600301908051906020019061062a929190611db0565b50905050600754905092915050565b60606000805461064890612c5e565b80601f016020809104026020016040519081016040528092919081815260200182805461067490612c5e565b80156106c15780601f10610696576101008083540402835291602001916106c1565b820191906000526020600020905b8154815290600101906020018083116106a457829003601f168201915b5050505050905090565b60006106d682611111565b610715576040517f08c379a000000000000000000000000000000000000000000000000000000000815260040161070c906128e9565b60405180910390fd5b6004600083815260200190815260200160002060009054906101000a900473ffffffffffffffffffffffffffffffffffffffff169050919050565b600061075b826109b4565b90508073ffffffffffffffffffffffffffffffffffffffff168373ffffffffffffffffffffffffffffffffffffffff1614156107cc576040517f08c379a00000000000000000000000000000000000000000000000000000000081526004016107c390612929565b60405180910390fd5b8073ffffffffffffffffffffffffffffffffffffffff166107eb61117d565b73ffffffffffffffffffffffffffffffffffffffff16148061081a57506108198161081461117d565b610f81565b5b610859576040517f08c379a000000000000000000000000000000000000000000000000000000000815260040161085090612829565b60405180910390fd5b6108638383611185565b505050565b60006007600081548092919061087d90612cc1565b919050555061088e8260075461107f565b61089a6007548461109d565b8173ffffffffffffffffffffffffffffffffffffffff163073ffffffffffffffffffffffffffffffffffffffff167f4dc24097c6827d1697cd49c84e5c1a8ea84780507858b1762011856c43b6715a856007546040516108fb929190612739565b60405180910390a3600754905092915050565b61091f61091961117d565b8261123e565b61095e576040517f08c379a000000000000000000000000000000000000000000000000000000000815260040161095590612949565b60405180910390fd5b61096983838361131c565b505050565b61098983838360405180602001604052806000815250610bcc565b505050565b600860009054906101000a900473ffffffffffffffffffffffffffffffffffffffff1681565b6000806002600084815260200190815260200160002060009054906101000a900473ffffffffffffffffffffffffffffffffffffffff169050600073ffffffffffffffffffffffffffffffffffffffff168173ffffffffffffffffffffffffffffffffffffffff161415610a5d576040517f08c379a0000000000000000000000000000000000000000000000000000000008152600401610a5490612869565b60405180910390fd5b80915050919050565b60008073ffffffffffffffffffffffffffffffffffffffff168273ffffffffffffffffffffffffffffffffffffffff161415610ad7576040517f08c379a0000000000000000000000000000000000000000000000000000000008152600401610ace90612849565b60405180910390fd5b600360008373ffffffffffffffffffffffffffffffffffffffff1673ffffffffffffffffffffffffffffffffffffffff168152602001908152602001600020549050919050565b606060018054610b2d90612c5e565b80601f0160208091040260200160405190810160405280929190818152602001828054610b5990612c5e565b8015610ba65780601f10610b7b57610100808354040283529160200191610ba6565b820191906000526020600020905b815481529060010190602001808311610b8957829003601f168201915b5050505050905090565b60075481565b610bc8610bc161117d565b8383611583565b5050565b610bdd610bd761117d565b8361123e565b610c1c576040517f08c379a0000000000000000000000000000000000000000000000000000000008152600401610c1390612949565b60405180910390fd5b610c28848484846116f0565b50505050565b60096020528060005260406000206000915090508060000154908060010154908060020160009054906101000a900473ffffffffffffffffffffffffffffffffffffffff1690806003018054610c8390612c5e565b80601f0160208091040260200160405190810160405280929190818152602001828054610caf90612c5e565b8015610cfc5780601f10610cd157610100808354040283529160200191610cfc565b820191906000526020600020905b815481529060010190602001808311610cdf57829003601f168201915b5050505050905084565b6060610d1182611111565b610d50576040517f08c379a0000000000000000000000000000000000000000000000000000000008152600401610d47906128c9565b60405180910390fd5b6000600660008481526020019081526020016000208054610d7090612c5e565b80601f0160208091040260200160405190810160405280929190818152602001828054610d9c90612c5e565b8015610de95780601f10610dbe57610100808354040283529160200191610de9565b820191906000526020600020905b815481529060010190602001808311610dcc57829003601f168201915b505050505090506000610dfa61174c565b9050600081511415610e10578192505050610e53565b600082511115610e45578082604051602001610e2d929190612671565b60405160208183030381529060405292505050610e53565b610e4e84611763565b925050505b919050565b610e60611e36565b6009600083815260200190815260200160002060405180608001604052908160008201548152602001600182015481526020016002820160009054906101000a900473ffffffffffffffffffffffffffffffffffffffff1673ffffffffffffffffffffffffffffffffffffffff1673ffffffffffffffffffffffffffffffffffffffff168152602001600382018054610ef890612c5e565b80601f0160208091040260200160405190810160405280929190818152602001828054610f2490612c5e565b8015610f715780601f10610f4657610100808354040283529160200191610f71565b820191906000526020600020905b815481529060010190602001808311610f5457829003601f168201915b5050505050815250509050919050565b6000600560008473ffffffffffffffffffffffffffffffffffffffff1673ffffffffffffffffffffffffffffffffffffffff16815260200190815260200160002060008373ffffffffffffffffffffffffffffffffffffffff1673ffffffffffffffffffffffffffffffffffffffff16815260200190815260200160002060009054906101000a900460ff16905092915050565b60007f01ffc9a7000000000000000000000000000000000000000000000000000000007bffffffffffffffffffffffffffffffffffffffffffffffffffffffff1916827bffffffffffffffffffffffffffffffffffffffffffffffffffffffff1916149050919050565b61109982826040518060200160405280600081525061180a565b5050565b6110a682611111565b6110e5576040517f08c379a00000000000000000000000000000000000000000000000000000000081526004016110dc90612889565b60405180910390fd5b8060066000848152602001908152602001600020908051906020019061110c929190611db0565b505050565b60008073ffffffffffffffffffffffffffffffffffffffff166002600084815260200190815260200160002060009054906101000a900473ffffffffffffffffffffffffffffffffffffffff1673ffffffffffffffffffffffffffffffffffffffff1614159050919050565b600033905090565b816004600083815260200190815260200160002060006101000a81548173ffffffffffffffffffffffffffffffffffffffff021916908373ffffffffffffffffffffffffffffffffffffffff160217905550808273ffffffffffffffffffffffffffffffffffffffff166111f8836109b4565b73ffffffffffffffffffffffffffffffffffffffff167f8c5be1e5ebec7d5bd14f71427d1e84f3dd0314c0f7b2291e5b200ac8c7c3b92560405160405180910390a45050565b600061124982611111565b611288576040517f08c379a000000000000000000000000000000000000000000000000000000000815260040161127f90612809565b60405180910390fd5b6000611293836109b4565b90508073ffffffffffffffffffffffffffffffffffffffff168473ffffffffffffffffffffffffffffffffffffffff16148061130257508373ffffffffffffffffffffffffffffffffffffffff166112ea846106cb565b73ffffffffffffffffffffffffffffffffffffffff16145b8061131357506113128185610f81565b5b91505092915050565b8273ffffffffffffffffffffffffffffffffffffffff1661133c826109b4565b73ffffffffffffffffffffffffffffffffffffffff1614611392576040517f08c379a000000000000000000000000000000000000000000000000000000000815260040161138990612789565b60405180910390fd5b600073ffffffffffffffffffffffffffffffffffffffff168273ffffffffffffffffffffffffffffffffffffffff161415611402576040517f08c379a00000000000000000000000000000000000000000000000000000000081526004016113f9906127c9565b60405180910390fd5b61140d838383611865565b611418600082611185565b6001600360008573ffffffffffffffffffffffffffffffffffffffff1673ffffffffffffffffffffffffffffffffffffffff16815260200190815260200160002060008282546114689190612b74565b925050819055506001600360008473ffffffffffffffffffffffffffffffffffffffff1673ffffffffffffffffffffffffffffffffffffffff16815260200190815260200160002060008282546114bf9190612aed565b92505081905550816002600083815260200190815260200160002060006101000a81548173ffffffffffffffffffffffffffffffffffffffff021916908373ffffffffffffffffffffffffffffffffffffffff160217905550808273ffffffffffffffffffffffffffffffffffffffff168473ffffffffffffffffffffffffffffffffffffffff167fddf252ad1be2c89b69c2b068fc378daa952ba7f163c4a11628f55a4df523b3ef60405160405180910390a461157e83838361186a565b505050565b8173ffffffffffffffffffffffffffffffffffffffff168373ffffffffffffffffffffffffffffffffffffffff1614156115f2576040517f08c379a00000000000000000000000000000000000000000000000000000000081526004016115e9906127e9565b60405180910390fd5b80600560008573ffffffffffffffffffffffffffffffffffffffff1673ffffffffffffffffffffffffffffffffffffffff16815260200190815260200160002060008473ffffffffffffffffffffffffffffffffffffffff1673ffffffffffffffffffffffffffffffffffffffff16815260200190815260200160002060006101000a81548160ff0219169083151502179055508173ffffffffffffffffffffffffffffffffffffffff168373ffffffffffffffffffffffffffffffffffffffff167f17307eab39ab6107e8899845ad3d59bd9653f200f220920489ca2b5937696c31836040516116e391906126fc565b60405180910390a3505050565b6116fb84848461131c565b6117078484848461186f565b611746576040517f08c379a000000000000000000000000000000000000000000000000000000000815260040161173d90612769565b60405180910390fd5b50505050565b606060405180602001604052806000815250905090565b606061176e82611111565b6117ad576040517f08c379a00000000000000000000000000000000000000000000000000000000081526004016117a490612909565b60405180910390fd5b60006117b761174c565b905060008151116117d75760405180602001604052806000815250611802565b806117e184611a06565b6040516020016117f2929190612671565b6040516020818303038152906040525b915050919050565b6118148383611bb3565b611821600084848461186f565b611860576040517f08c379a000000000000000000000000000000000000000000000000000000000815260040161185790612769565b60405180910390fd5b505050565b505050565b505050565b60006118908473ffffffffffffffffffffffffffffffffffffffff16611d8d565b156119f9578373ffffffffffffffffffffffffffffffffffffffff1663150b7a026118b961117d565b8786866040518563ffffffff1660e01b81526004016118db94939291906126b0565b602060405180830381600087803b1580156118f557600080fd5b505af192505050801561192657506040513d601f19601f82011682018060405250810190611923919061219a565b60015b6119a9573d8060008114611956576040519150601f19603f3d011682016040523d82523d6000602084013e61195b565b606091505b506000815114156119a1576040517f08c379a000000000000000000000000000000000000000000000000000000000815260040161199890612769565b60405180910390fd5b805181602001fd5b63150b7a0260e01b7bffffffffffffffffffffffffffffffffffffffffffffffffffffffff1916817bffffffffffffffffffffffffffffffffffffffffffffffffffffffff1916149150506119fe565b600190505b949350505050565b60606000821415611a4e576040518060400160405280600181526020017f30000000000000000000000000000000000000000000000000000000000000008152509050611bae565b600082905060005b60008214611a80578080611a6990612cc1565b915050600a82611a799190612b43565b9150611a56565b60008167ffffffffffffffff811115611ac2577f4e487b7100000000000000000000000000000000000000000000000000000000600052604160045260246000fd5b6040519080825280601f01601f191660200182016040528015611af45781602001600182028036833780820191505090505b5090505b60008514611ba757600182611b0d9190612b74565b9150600a85611b1c9190612d0a565b6030611b289190612aed565b60f81b818381518110611b64577f4e487b7100000000000000000000000000000000000000000000000000000000600052603260045260246000fd5b60200101907effffffffffffffffffffffffffffffffffffffffffffffffffffffffffffff1916908160001a905350600a85611ba09190612b43565b9450611af8565b8093505050505b919050565b600073ffffffffffffffffffffffffffffffffffffffff168273ffffffffffffffffffffffffffffffffffffffff161415611c23576040517f08c379a0000000000000000000000000000000000000000000000000000000008152600401611c1a906128a9565b60405180910390fd5b611c2c81611111565b15611c6c576040517f08c379a0000000000000000000000000000000000000000000000000000000008152600401611c63906127a9565b60405180910390fd5b611c7860008383611865565b6001600360008473ffffffffffffffffffffffffffffffffffffffff1673ffffffffffffffffffffffffffffffffffffffff1681526020019081526020016000206000828254611cc89190612aed565b92505081905550816002600083815260200190815260200160002060006101000a81548173ffffffffffffffffffffffffffffffffffffffff021916908373ffffffffffffffffffffffffffffffffffffffff160217905550808273ffffffffffffffffffffffffffffffffffffffff16600073ffffffffffffffffffffffffffffffffffffffff167fddf252ad1be2c89b69c2b068fc378daa952ba7f163c4a11628f55a4df523b3ef60405160405180910390a4611d896000838361186a565b5050565b6000808273ffffffffffffffffffffffffffffffffffffffff163b119050919050565b828054611dbc90612c5e565b90600052602060002090601f016020900481019282611dde5760008555611e25565b82601f10611df757805160ff1916838001178555611e25565b82800160010185558215611e25579182015b82811115611e24578251825591602001919060010190611e09565b5b509050611e329190611e74565b5090565b60405180608001604052806000815260200160008152602001600073ffffffffffffffffffffffffffffffffffffffff168152602001606081525090565b5b80821115611e8d576000816000905550600101611e75565b5090565b6000611ea4611e9f84612a37565b612a12565b905082815260208101848484011115611ebc57600080fd5b611ec7848285612c1c565b509392505050565b6000611ee2611edd84612a68565b612a12565b905082815260208101848484011115611efa57600080fd5b611f05848285612c1c565b509392505050565b600081359050611f1c816132d5565b92915050565b600081359050611f31816132ec565b92915050565b600081359050611f4681613303565b92915050565b600081519050611f5b81613303565b92915050565b600082601f830112611f7257600080fd5b8135611f82848260208601611e91565b91505092915050565b600082601f830112611f9c57600080fd5b8135611fac848260208601611ecf565b91505092915050565b600081359050611fc48161331a565b92915050565b600060208284031215611fdc57600080fd5b6000611fea84828501611f0d565b91505092915050565b6000806040838503121561200657600080fd5b600061201485828601611f0d565b925050602061202585828601611f0d565b9150509250929050565b60008060006060848603121561204457600080fd5b600061205286828701611f0d565b935050602061206386828701611f0d565b925050604061207486828701611fb5565b9150509250925092565b6000806000806080858703121561209457600080fd5b60006120a287828801611f0d565b94505060206120b387828801611f0d565b93505060406120c487828801611fb5565b925050606085013567ffffffffffffffff8111156120e157600080fd5b6120ed87828801611f61565b91505092959194509250565b6000806040838503121561210c57600080fd5b600061211a85828601611f0d565b925050602061212b85828601611f22565b9150509250929050565b6000806040838503121561214857600080fd5b600061215685828601611f0d565b925050602061216785828601611fb5565b9150509250929050565b60006020828403121561218357600080fd5b600061219184828501611f37565b91505092915050565b6000602082840312156121ac57600080fd5b60006121ba84828501611f4c565b91505092915050565b600080604083850312156121d657600080fd5b600083013567ffffffffffffffff8111156121f057600080fd5b6121fc85828601611f8b565b925050602061220d85828601611f0d565b9150509250929050565b6000806040838503121561222a57600080fd5b600083013567ffffffffffffffff81111561224457600080fd5b61225085828601611f8b565b925050602061226185828601611fb5565b9150509250929050565b60006020828403121561227d57600080fd5b600061228b84828501611fb5565b91505092915050565b61229d81612ba8565b82525050565b6122ac81612ba8565b82525050565b6122bb81612bba565b82525050565b60006122cc82612a99565b6122d68185612aaf565b93506122e6818560208601612c2b565b6122ef81612df7565b840191505092915050565b600061230582612aa4565b61230f8185612ac0565b935061231f818560208601612c2b565b61232881612df7565b840191505092915050565b600061233e82612aa4565b6123488185612ad1565b9350612358818560208601612c2b565b61236181612df7565b840191505092915050565b600061237782612aa4565b6123818185612ae2565b9350612391818560208601612c2b565b80840191505092915050565b60006123aa603283612ad1565b91506123b582612e08565b604082019050919050565b60006123cd602583612ad1565b91506123d882612e57565b604082019050919050565b60006123f0601c83612ad1565b91506123fb82612ea6565b602082019050919050565b6000612413602483612ad1565b915061241e82612ecf565b604082019050919050565b6000612436601983612ad1565b915061244182612f1e565b602082019050919050565b6000612459602c83612ad1565b915061246482612f47565b604082019050919050565b600061247c603883612ad1565b915061248782612f96565b604082019050919050565b600061249f602a83612ad1565b91506124aa82612fe5565b604082019050919050565b60006124c2602983612ad1565b91506124cd82613034565b604082019050919050565b60006124e5602e83612ad1565b91506124f082613083565b604082019050919050565b6000612508602083612ad1565b9150612513826130d2565b602082019050919050565b600061252b603183612ad1565b9150612536826130fb565b604082019050919050565b600061254e602c83612ad1565b91506125598261314a565b604082019050919050565b6000612571602f83612ad1565b915061257c82613199565b604082019050919050565b6000612594602183612ad1565b915061259f826131e8565b604082019050919050565b60006125b7603183612ad1565b91506125c282613237565b604082019050919050565b60006125da602283612ad1565b91506125e582613286565b604082019050919050565b60006080830160008301516126086000860182612653565b50602083015161261b6020860182612653565b50604083015161262e6040860182612294565b506060830151848203606086015261264682826122fa565b9150508091505092915050565b61265c81612c12565b82525050565b61266b81612c12565b82525050565b600061267d828561236c565b9150612689828461236c565b91508190509392505050565b60006020820190506126aa60008301846122a3565b92915050565b60006080820190506126c560008301876122a3565b6126d260208301866122a3565b6126df6040830185612662565b81810360608301526126f181846122c1565b905095945050505050565b600060208201905061271160008301846122b2565b92915050565b600060208201905081810360008301526127318184612333565b905092915050565b600060408201905081810360008301526127538185612333565b90506127626020830184612662565b9392505050565b600060208201905081810360008301526127828161239d565b9050919050565b600060208201905081810360008301526127a2816123c0565b9050919050565b600060208201905081810360008301526127c2816123e3565b9050919050565b600060208201905081810360008301526127e281612406565b9050919050565b6000602082019050818103600083015261280281612429565b9050919050565b600060208201905081810360008301526128228161244c565b9050919050565b600060208201905081810360008301526128428161246f565b9050919050565b6000602082019050818103600083015261286281612492565b9050919050565b60006020820190508181036000830152612882816124b5565b9050919050565b600060208201905081810360008301526128a2816124d8565b9050919050565b600060208201905081810360008301526128c2816124fb565b9050919050565b600060208201905081810360008301526128e28161251e565b9050919050565b6000602082019050818103600083015261290281612541565b9050919050565b6000602082019050818103600083015261292281612564565b9050919050565b6000602082019050818103600083015261294281612587565b9050919050565b60006020820190508181036000830152612962816125aa565b9050919050565b60006020820190508181036000830152612982816125cd565b9050919050565b600060208201905081810360008301526129a381846125f0565b905092915050565b60006020820190506129c06000830184612662565b92915050565b60006080820190506129db6000830187612662565b6129e86020830186612662565b6129f560408301856122a3565b8181036060830152612a078184612333565b905095945050505050565b6000612a1c612a2d565b9050612a288282612c90565b919050565b6000604051905090565b600067ffffffffffffffff821115612a5257612a51612dc8565b5b612a5b82612df7565b9050602081019050919050565b600067ffffffffffffffff821115612a8357612a82612dc8565b5b612a8c82612df7565b9050602081019050919050565b600081519050919050565b600081519050919050565b600082825260208201905092915050565b600082825260208201905092915050565b600082825260208201905092915050565b600081905092915050565b6000612af882612c12565b9150612b0383612c12565b9250827fffffffffffffffffffffffffffffffffffffffffffffffffffffffffffffffff03821115612b3857612b37612d3b565b5b828201905092915050565b6000612b4e82612c12565b9150612b5983612c12565b925082612b6957612b68612d6a565b5b828204905092915050565b6000612b7f82612c12565b9150612b8a83612c12565b925082821015612b9d57612b9c612d3b565b5b828203905092915050565b6000612bb382612bf2565b9050919050565b60008115159050919050565b60007fffffffff0000000000000000000000000000000000000000000000000000000082169050919050565b600073ffffffffffffffffffffffffffffffffffffffff82169050919050565b6000819050919050565b82818337600083830152505050565b60005b83811015612c49578082015181840152602081019050612c2e565b83811115612c58576000848401525b50505050565b60006002820490506001821680612c7657607f821691505b60208210811415612c8a57612c89612d99565b5b50919050565b612c9982612df7565b810181811067ffffffffffffffff82111715612cb857612cb7612dc8565b5b80604052505050565b6000612ccc82612c12565b91507fffffffffffffffffffffffffffffffffffffffffffffffffffffffffffffffff821415612cff57612cfe612d3b565b5b600182019050919050565b6000612d1582612c12565b9150612d2083612c12565b925082612d3057612d2f612d6a565b5b828206905092915050565b7f4e487b7100000000000000000000000000000000000000000000000000000000600052601160045260246000fd5b7f4e487b7100000000000000000000000000000000000000000000000000000000600052601260045260246000fd5b7f4e487b7100000000000000000000000000000000000000000000000000000000600052602260045260246000fd5b7f4e487b7100000000000000000000000000000000000000000000000000000000600052604160045260246000fd5b6000601f19601f8301169050919050565b7f4552433732313a207472616e7366657220746f206e6f6e20455243373231526560008201527f63656976657220696d706c656d656e7465720000000000000000000000000000602082015250565b7f4552433732313a207472616e736665722066726f6d20696e636f72726563742060008201527f6f776e6572000000000000000000000000000000000000000000000000000000602082015250565b7f4552433732313a20746f6b656e20616c7265616479206d696e74656400000000600082015250565b7f4552433732313a207472616e7366657220746f20746865207a65726f2061646460008201527f7265737300000000000000000000000000000000000000000000000000000000602082015250565b7f4552433732313a20617070726f766520746f2063616c6c657200000000000000600082015250565b7f4552433732313a206f70657261746f7220717565727920666f72206e6f6e657860008201527f697374656e7420746f6b656e0000000000000000000000000000000000000000602082015250565b7f4552433732313a20617070726f76652063616c6c6572206973206e6f74206f7760008201527f6e6572206e6f7220617070726f76656420666f7220616c6c0000000000000000602082015250565b7f4552433732313a2062616c616e636520717565727920666f7220746865207a6560008201527f726f206164647265737300000000000000000000000000000000000000000000602082015250565b7f4552433732313a206f776e657220717565727920666f72206e6f6e657869737460008201527f656e7420746f6b656e0000000000000000000000000000000000000000000000602082015250565b7f45524337323155524953746f726167653a2055524920736574206f66206e6f6e60008201527f6578697374656e7420746f6b656e000000000000000000000000000000000000602082015250565b7f4552433732313a206d696e7420746f20746865207a65726f2061646472657373600082015250565b7f45524337323155524953746f726167653a2055524920717565727920666f722060008201527f6e6f6e6578697374656e7420746f6b656e000000000000000000000000000000602082015250565b7f4552433732313a20617070726f76656420717565727920666f72206e6f6e657860008201527f697374656e7420746f6b656e0000000000000000000000000000000000000000602082015250565b7f4552433732314d657461646174613a2055524920717565727920666f72206e6f60008201527f6e6578697374656e7420746f6b656e0000000000000000000000000000000000602082015250565b7f4552433732313a20617070726f76616c20746f2063757272656e74206f776e6560008201527f7200000000000000000000000000000000000000000000000000000000000000602082015250565b7f4552433732313a207472616e736665722063616c6c6572206973206e6f74206f60008201527f776e6572206e6f7220617070726f766564000000000000000000000000000000602082015250565b7f54686520726f79616c7469657320697320746f6f20686967682021204772656560008201527f6479000000000000000000000000000000000000000000000000000000000000602082015250565b6132de81612ba8565b81146132e957600080fd5b50565b6132f581612bba565b811461330057600080fd5b50565b61330c81612bc6565b811461331757600080fd5b50565b61332381612c12565b811461332e57600080fd5b5056fea2646970667358221220652f71f4a0594143b3e918aa391ae6f16313f0ee441304b47b72b1ff5060723764736f6c63430008040033a26469706673582212206b0df575fdb70d91d9635aa42c081cc5604d54a1e4dc3e4968878dc844ab0e6864736f6c63430008040033",
  "linkReferences": {},
  "deployedLinkReferences": {}
}