{
  "_format": "hh-sol-artifact-1",
  "contractName": "Marketplace",
  "sourceName": "src/backend/contracts/Marketplace.sol",
  "abi": [
    {
      "inputs": [
        {
          "internalType": "uint256",
          "name": "_feePercent",
          "type": "uint256"
        }
      ],
      "stateMutability": "nonpayable",
      "type": "constructor"
    },
    {
      "anonymous": false,
      "inputs": [
        {
          "indexed": false,
          "internalType": "uint256",
          "name": "itemId",
          "type": "uint256"
        },
        {
          "indexed": false,
          "internalType": "uint256",
          "name": "tokenID",
          "type": "uint256"
        },
        {
          "indexed": false,
          "internalType": "uint256",
          "name": "price",
          "type": "uint256"
        },
        {
          "indexed": false,
          "internalType": "uint256",
          "name": "royalties",
          "type": "uint256"
        },
        {
          "indexed": true,
          "internalType": "address",
          "name": "nft",
          "type": "address"
        },
        {
          "indexed": true,
          "internalType": "address",
          "name": "nftOwner",
          "type": "address"
        },
        {
          "indexed": true,
          "internalType": "address",
          "name": "buyer",
          "type": "address"
        }
      ],
      "name": "Bought",
      "type": "event"
    },
    {
      "anonymous": false,
      "inputs": [
        {
          "indexed": false,
          "internalType": "address",
          "name": "_contract",
          "type": "address"
        },
        {
          "indexed": false,
          "internalType": "bytes32",
          "name": "salt",
          "type": "bytes32"
        }
      ],
      "name": "Deployed",
      "type": "event"
    },
    {
      "anonymous": false,
      "inputs": [
        {
          "indexed": false,
          "internalType": "uint256",
          "name": "itemId",
          "type": "uint256"
        },
        {
          "indexed": true,
          "internalType": "address",
          "name": "nft",
          "type": "address"
        },
        {
          "indexed": false,
          "internalType": "uint256",
          "name": "tokenID",
          "type": "uint256"
        },
        {
          "indexed": false,
          "internalType": "uint256",
          "name": "price",
          "type": "uint256"
        },
        {
          "indexed": false,
          "internalType": "uint256",
          "name": "_royalties",
          "type": "uint256"
        },
        {
          "indexed": true,
          "internalType": "address",
          "name": "nftOwner",
          "type": "address"
        }
      ],
      "name": "Offered",
      "type": "event"
    },
    {
      "inputs": [],
      "name": "feeAccount",
      "outputs": [
        {
          "internalType": "address payable",
          "name": "",
          "type": "address"
        }
      ],
      "stateMutability": "view",
      "type": "function"
    },
    {
      "inputs": [],
      "name": "feePercent",
      "outputs": [
        {
          "internalType": "uint256",
          "name": "",
          "type": "uint256"
        }
      ],
      "stateMutability": "view",
      "type": "function"
    },
    {
      "inputs": [
        {
          "internalType": "uint256",
          "name": "_itemId",
          "type": "uint256"
        }
      ],
      "name": "getTotalPrice",
      "outputs": [
        {
          "internalType": "uint256",
          "name": "",
          "type": "uint256"
        }
      ],
      "stateMutability": "view",
      "type": "function"
    },
    {
      "inputs": [],
      "name": "itemCount",
      "outputs": [
        {
          "internalType": "uint256",
          "name": "",
          "type": "uint256"
        }
      ],
      "stateMutability": "view",
      "type": "function"
    },
    {
      "inputs": [
        {
          "internalType": "uint256",
          "name": "",
          "type": "uint256"
        }
      ],
      "name": "items",
      "outputs": [
        {
          "internalType": "uint256",
          "name": "itemId",
          "type": "uint256"
        },
        {
          "internalType": "uint256",
          "name": "tokenID",
          "type": "uint256"
        },
        {
          "internalType": "uint256",
          "name": "price",
          "type": "uint256"
        },
        {
          "internalType": "uint256",
          "name": "royalties",
          "type": "uint256"
        },
        {
          "internalType": "contract IERC721",
          "name": "nft",
          "type": "address"
        },
        {
          "internalType": "address payable",
          "name": "nftOwner",
          "type": "address"
        },
        {
          "internalType": "address payable",
          "name": "creator",
          "type": "address"
        },
        {
          "internalType": "bool",
          "name": "sold",
          "type": "bool"
        }
      ],
      "stateMutability": "view",
      "type": "function"
    },
    {
      "inputs": [
        {
          "internalType": "contract IERC721",
          "name": "_nft",
          "type": "address"
        },
        {
          "internalType": "uint256",
          "name": "_tokenId",
          "type": "uint256"
        },
        {
          "internalType": "uint256",
          "name": "_price",
          "type": "uint256"
        },
        {
          "internalType": "uint256",
          "name": "_royalties",
          "type": "uint256"
        }
      ],
      "name": "makeItem",
      "outputs": [],
      "stateMutability": "nonpayable",
      "type": "function"
    },
    {
      "inputs": [
        {
          "internalType": "uint256",
          "name": "_itemId",
          "type": "uint256"
        }
      ],
      "name": "purchaseItem",
      "outputs": [],
      "stateMutability": "payable",
      "type": "function"
    },
    {
      "inputs": [
        {
          "internalType": "contract IERC721",
          "name": "_nft",
          "type": "address"
        },
        {
          "internalType": "uint256",
          "name": "_itemId",
          "type": "uint256"
        },
        {
          "internalType": "uint256",
          "name": "_price",
          "type": "uint256"
        }
      ],
      "name": "sellItem",
      "outputs": [],
      "stateMutability": "nonpayable",
      "type": "function"
    }
  ],
  "bytecode": "0x60c06040523480156200001157600080fd5b50604051620017b3380380620017b383398181016040528101906200003791906200009c565b60016000819055503373ffffffffffffffffffffffffffffffffffffffff1660808173ffffffffffffffffffffffffffffffffffffffff1660601b815250508060a0818152505050620000ec565b6000815190506200009681620000d2565b92915050565b600060208284031215620000af57600080fd5b6000620000bf8482850162000085565b91505092915050565b6000819050919050565b620000dd81620000c8565b8114620000e957600080fd5b50565b60805160601c60a05161169062000123600039600081816107a801526108850152600081816101f20152610ada01526116906000f3fe60806040526004361061007b5760003560e01c80637fd6f15c1161004e5780637fd6f15c14610128578063bfb231d214610153578063ca7dd37514610197578063d38ea5bf146101d45761007b565b806365e17c9d1461008057806368915327146100ab578063696aae08146100d45780636bfb0d01146100fd575b600080fd5b34801561008c57600080fd5b506100956101f0565b6040516100a29190611040565b60405180910390f35b3480156100b757600080fd5b506100d260048036038101906100cd9190610e02565b610214565b005b3480156100e057600080fd5b506100fb60048036038101906100f69190610e51565b610457565b005b34801561010957600080fd5b506101126107a0565b60405161011f9190611192565b60405180910390f35b34801561013457600080fd5b5061013d6107a6565b60405161014a9190611192565b60405180910390f35b34801561015f57600080fd5b5061017a60048036038101906101759190610eb4565b6107ca565b60405161018e9897969594939291906111f2565b60405180910390f35b3480156101a357600080fd5b506101be60048036038101906101b99190610eb4565b61087f565b6040516101cb9190611192565b60405180910390f35b6101ee60048036038101906101e99190610eb4565b6108e2565b005b7f000000000000000000000000000000000000000000000000000000000000000081565b3373ffffffffffffffffffffffffffffffffffffffff168373ffffffffffffffffffffffffffffffffffffffff16636352211e846040518263ffffffff1660e01b81526004016102649190611192565b60206040518083038186803b15801561027c57600080fd5b505afa158015610290573d6000803e3d6000fd5b505050506040513d601f19601f820116820180604052508101906102b49190610dd9565b73ffffffffffffffffffffffffffffffffffffffff161461030a576040517f08c379a0000000000000000000000000000000000000000000000000000000008152600401610301906110b2565b60405180910390fd5b6000811161034d576040517f08c379a0000000000000000000000000000000000000000000000000000000008152600401610344906110d2565b60405180910390fd5b6000600260008481526020019081526020016000209050600115158160060160149054906101000a900460ff161515146103bc576040517f08c379a00000000000000000000000000000000000000000000000000000000081526004016103b390611092565b60405180910390fd5b60008160060160146101000a81548160ff0219169083151502179055508181600201819055508373ffffffffffffffffffffffffffffffffffffffff166323b872dd3330866040518463ffffffff1660e01b815260040161041f9392919061105b565b600060405180830381600087803b15801561043957600080fd5b505af115801561044d573d6000803e3d6000fd5b5050505050505050565b6002600054141561049d576040517f08c379a000000000000000000000000000000000000000000000000000000000815260040161049490611152565b60405180910390fd5b6002600081905550816000106104e8576040517f08c379a00000000000000000000000000000000000000000000000000000000081526004016104df90611112565b60405180910390fd5b600160008154809291906104fb90611426565b91905055508373ffffffffffffffffffffffffffffffffffffffff166323b872dd3330866040518463ffffffff1660e01b815260040161053d9392919061105b565b600060405180830381600087803b15801561055757600080fd5b505af115801561056b573d6000803e3d6000fd5b5050505060405180610100016040528060015481526020018481526020018381526020018281526020018573ffffffffffffffffffffffffffffffffffffffff1681526020013373ffffffffffffffffffffffffffffffffffffffff1681526020013373ffffffffffffffffffffffffffffffffffffffff168152602001600015158152506002600060015481526020019081526020016000206000820151816000015560208201518160010155604082015181600201556060820151816003015560808201518160040160006101000a81548173ffffffffffffffffffffffffffffffffffffffff021916908373ffffffffffffffffffffffffffffffffffffffff16021790555060a08201518160050160006101000a81548173ffffffffffffffffffffffffffffffffffffffff021916908373ffffffffffffffffffffffffffffffffffffffff16021790555060c08201518160060160006101000a81548173ffffffffffffffffffffffffffffffffffffffff021916908373ffffffffffffffffffffffffffffffffffffffff16021790555060e08201518160060160146101000a81548160ff0219169083151502179055509050503373ffffffffffffffffffffffffffffffffffffffff168473ffffffffffffffffffffffffffffffffffffffff167f8a7207dec41e68d1fbb358baac1c6ead9b1741d156d9bb551ae56d77c4a04e9360015486868660405161078a94939291906111ad565b60405180910390a3600160008190555050505050565b60015481565b7f000000000000000000000000000000000000000000000000000000000000000081565b60026020528060005260406000206000915090508060000154908060010154908060020154908060030154908060040160009054906101000a900473ffffffffffffffffffffffffffffffffffffffff16908060050160009054906101000a900473ffffffffffffffffffffffffffffffffffffffff16908060060160009054906101000a900473ffffffffffffffffffffffffffffffffffffffff16908060060160149054906101000a900460ff16905088565b600060647f000000000000000000000000000000000000000000000000000000000000000060646108b09190611281565b60026000858152602001908152602001600020600201546108d19190611308565b6108db91906112d7565b9050919050565b60026000541415610928576040517f08c379a000000000000000000000000000000000000000000000000000000000815260040161091f90611152565b60405180910390fd5b6002600081905550600061093b8261087f565b9050600060026000848152602001908152602001600020905060008311801561096657506001548311155b6109a5576040517f08c379a000000000000000000000000000000000000000000000000000000000815260040161099c906110f2565b60405180910390fd5b813410156109e8576040517f08c379a00000000000000000000000000000000000000000000000000000000081526004016109df90611132565b60405180910390fd5b8060060160149054906101000a900460ff1615610a3a576040517f08c379a0000000000000000000000000000000000000000000000000000000008152600401610a3190611172565b60405180910390fd5b6000606482600301548360020154610a529190611308565b610a5c91906112d7565b90508160050160009054906101000a900473ffffffffffffffffffffffffffffffffffffffff1673ffffffffffffffffffffffffffffffffffffffff166108fc828460020154610aac9190611362565b9081150290604051600060405180830381858888f19350505050158015610ad7573d6000803e3d6000fd5b507f000000000000000000000000000000000000000000000000000000000000000073ffffffffffffffffffffffffffffffffffffffff166108fc836002015485610b229190611362565b9081150290604051600060405180830381858888f19350505050158015610b4d573d6000803e3d6000fd5b506000811115610bc3578160060160009054906101000a900473ffffffffffffffffffffffffffffffffffffffff1673ffffffffffffffffffffffffffffffffffffffff166108fc829081150290604051600060405180830381858888f19350505050158015610bc1573d6000803e3d6000fd5b505b8160040160009054906101000a900473ffffffffffffffffffffffffffffffffffffffff1673ffffffffffffffffffffffffffffffffffffffff166323b872dd303385600101546040518463ffffffff1660e01b8152600401610c289392919061105b565b600060405180830381600087803b158015610c4257600080fd5b505af1158015610c56573d6000803e3d6000fd5b505050503373ffffffffffffffffffffffffffffffffffffffff168260050160009054906101000a900473ffffffffffffffffffffffffffffffffffffffff1673ffffffffffffffffffffffffffffffffffffffff168360040160009054906101000a900473ffffffffffffffffffffffffffffffffffffffff1673ffffffffffffffffffffffffffffffffffffffff167f018ba1a6d68b05f27d982bf5b47fa8949139ad3467ba2ad4740127f762c7b3b3878660010154876002015487604051610d2494939291906111ad565b60405180910390a460018260060160146101000a81548160ff021916908315150217905550338260050160006101000a81548173ffffffffffffffffffffffffffffffffffffffff021916908373ffffffffffffffffffffffffffffffffffffffff160217905550505050600160008190555050565b600081519050610da981611615565b92915050565b600081359050610dbe8161162c565b92915050565b600081359050610dd381611643565b92915050565b600060208284031215610deb57600080fd5b6000610df984828501610d9a565b91505092915050565b600080600060608486031215610e1757600080fd5b6000610e2586828701610daf565b9350506020610e3686828701610dc4565b9250506040610e4786828701610dc4565b9150509250925092565b60008060008060808587031215610e6757600080fd5b6000610e7587828801610daf565b9450506020610e8687828801610dc4565b9350506040610e9787828801610dc4565b9250506060610ea887828801610dc4565b91505092959194509250565b600060208284031215610ec657600080fd5b6000610ed484828501610dc4565b91505092915050565b610ee6816113a8565b82525050565b610ef581611396565b82525050565b610f04816113ba565b82525050565b610f1381611402565b82525050565b6000610f26601b83611270565b9150610f31826114cd565b602082019050919050565b6000610f49601883611270565b9150610f54826114f6565b602082019050919050565b6000610f6c600a83611270565b9150610f778261151f565b602082019050919050565b6000610f8f601283611270565b9150610f9a82611548565b602082019050919050565b6000610fb2602083611270565b9150610fbd82611571565b602082019050919050565b6000610fd5601f83611270565b9150610fe08261159a565b602082019050919050565b6000610ff8601f83611270565b9150611003826115c3565b602082019050919050565b600061101b601183611270565b9150611026826115ec565b602082019050919050565b61103a816113f8565b82525050565b60006020820190506110556000830184610edd565b92915050565b60006060820190506110706000830186610eec565b61107d6020830185610eec565b61108a6040830184611031565b949350505050565b600060208201905081810360008301526110ab81610f19565b9050919050565b600060208201905081810360008301526110cb81610f3c565b9050919050565b600060208201905081810360008301526110eb81610f5f565b9050919050565b6000602082019050818103600083015261110b81610f82565b9050919050565b6000602082019050818103600083015261112b81610fa5565b9050919050565b6000602082019050818103600083015261114b81610fc8565b9050919050565b6000602082019050818103600083015261116b81610feb565b9050919050565b6000602082019050818103600083015261118b8161100e565b9050919050565b60006020820190506111a76000830184611031565b92915050565b60006080820190506111c26000830187611031565b6111cf6020830186611031565b6111dc6040830185611031565b6111e96060830184611031565b95945050505050565b600061010082019050611208600083018b611031565b611215602083018a611031565b6112226040830189611031565b61122f6060830188611031565b61123c6080830187610f0a565b61124960a0830186610edd565b61125660c0830185610edd565b61126360e0830184610efb565b9998505050505050505050565b600082825260208201905092915050565b600061128c826113f8565b9150611297836113f8565b9250827fffffffffffffffffffffffffffffffffffffffffffffffffffffffffffffffff038211156112cc576112cb61146f565b5b828201905092915050565b60006112e2826113f8565b91506112ed836113f8565b9250826112fd576112fc61149e565b5b828204905092915050565b6000611313826113f8565b915061131e836113f8565b9250817fffffffffffffffffffffffffffffffffffffffffffffffffffffffffffffffff04831182151516156113575761135661146f565b5b828202905092915050565b600061136d826113f8565b9150611378836113f8565b92508282101561138b5761138a61146f565b5b828203905092915050565b60006113a1826113d8565b9050919050565b60006113b3826113d8565b9050919050565b60008115159050919050565b60006113d182611396565b9050919050565b600073ffffffffffffffffffffffffffffffffffffffff82169050919050565b6000819050919050565b600061140d82611414565b9050919050565b600061141f826113d8565b9050919050565b6000611431826113f8565b91507fffffffffffffffffffffffffffffffffffffffffffffffffffffffffffffffff8214156114645761146361146f565b5b600182019050919050565b7f4e487b7100000000000000000000000000000000000000000000000000000000600052601160045260246000fd5b7f4e487b7100000000000000000000000000000000000000000000000000000000600052601260045260246000fd5b7f54686973206e667420697320616c7265616479206f6e2073616c650000000000600082015250565b7f43616c6c6572206d75737420626520746865206f776e65720000000000000000600082015250565b7f46726565206e6674203f00000000000000000000000000000000000000000000600082015250565b7f6974656d20646f65736e27742065786973740000000000000000000000000000600082015250565b7f5072696365206d757374206265206772656174657220746872616e207a65726f600082015250565b7f4e6f7420656e6f75676820657468657220746f20636f76657220707269636500600082015250565b7f5265656e7472616e637947756172643a207265656e7472616e742063616c6c00600082015250565b7f4974656d20616c726561647920736f6c64000000000000000000000000000000600082015250565b61161e81611396565b811461162957600080fd5b50565b611635816113c6565b811461164057600080fd5b50565b61164c816113f8565b811461165757600080fd5b5056fea264697066735822122051476be2e95197bf88100dbc623c20fee341f591d6b15e0720d10ba4b6f7fa0064736f6c63430008040033",
  "linkReferences": {},
  "deployedLinkReferences": {}
}