{
  "_format": "hh-sol-artifact-1",
  "contractName": "NFT",
  "sourceName": "src/backend/contracts/NFT.sol",
  "abi": [
    {
      "inputs": [],
      "stateMutability": "nonpayable",
      "type": "constructor"
    },
    {
      "anonymous": false,
      "inputs": [
        {
          "indexed": true,
          "internalType": "address",
          "name": "owner",
          "type": "address"
        },
        {
          "indexed": true,
          "internalType": "address",
          "name": "approved",
          "type": "address"
        },
        {
          "indexed": true,
          "internalType": "uint256",
          "name": "tokenId",
          "type": "uint256"
        }
      ],
      "name": "Approval",
      "type": "event"
    },
    {
      "anonymous": false,
      "inputs": [
        {
          "indexed": true,
          "internalType": "address",
          "name": "owner",
          "type": "address"
        },
        {
          "indexed": true,
          "internalType": "address",
          "name": "operator",
          "type": "address"
        },
        {
          "indexed": false,
          "internalType": "bool",
          "name": "approved",
          "type": "bool"
        }
      ],
      "name": "ApprovalForAll",
      "type": "event"
    },
    {
      "anonymous": false,
      "inputs": [
        {
          "indexed": true,
          "internalType": "address",
          "name": "from",
          "type": "address"
        },
        {
          "indexed": true,
          "internalType": "address",
          "name": "to",
          "type": "address"
        },
        {
          "indexed": true,
          "internalType": "uint256",
          "name": "tokenId",
          "type": "uint256"
        }
      ],
      "name": "Transfer",
      "type": "event"
    },
    {
      "anonymous": false,
      "inputs": [
        {
          "indexed": false,
          "internalType": "string",
          "name": "_tokenURINFT",
          "type": "string"
        },
        {
          "indexed": true,
          "internalType": "address",
          "name": "nft",
          "type": "address"
        },
        {
          "indexed": false,
          "internalType": "uint256",
          "name": "tokenID",
          "type": "uint256"
        },
        {
          "indexed": true,
          "internalType": "address",
          "name": "_ownerNFT",
          "type": "address"
        }
      ],
      "name": "mintBisEvent",
      "type": "event"
    },
    {
      "inputs": [
        {
          "internalType": "address",
          "name": "to",
          "type": "address"
        },
        {
          "internalType": "uint256",
          "name": "tokenId",
          "type": "uint256"
        }
      ],
      "name": "approve",
      "outputs": [],
      "stateMutability": "nonpayable",
      "type": "function"
    },
    {
      "inputs": [],
      "name": "artist",
      "outputs": [
        {
          "internalType": "address",
          "name": "",
          "type": "address"
        }
      ],
      "stateMutability": "view",
      "type": "function"
    },
    {
      "inputs": [
        {
          "internalType": "address",
          "name": "owner",
          "type": "address"
        }
      ],
      "name": "balanceOf",
      "outputs": [
        {
          "internalType": "uint256",
          "name": "",
          "type": "uint256"
        }
      ],
      "stateMutability": "view",
      "type": "function"
    },
    {
      "inputs": [
        {
          "internalType": "uint256",
          "name": "tokenId",
          "type": "uint256"
        }
      ],
      "name": "getApproved",
      "outputs": [
        {
          "internalType": "address",
          "name": "",
          "type": "address"
        }
      ],
      "stateMutability": "view",
      "type": "function"
    },
    {
      "inputs": [
        {
          "internalType": "uint256",
          "name": "_itemId",
          "type": "uint256"
        }
      ],
      "name": "getRoyaltiesInfos",
      "outputs": [
        {
          "components": [
            {
              "internalType": "uint256",
              "name": "itemID",
              "type": "uint256"
            },
            {
              "internalType": "uint256",
              "name": "royaltiyFee",
              "type": "uint256"
            },
            {
              "internalType": "address",
              "name": "creator",
              "type": "address"
            },
            {
              "internalType": "string",
              "name": "tokenUri",
              "type": "string"
            }
          ],
          "internalType": "struct NFT.Item",
          "name": "",
          "type": "tuple"
        }
      ],
      "stateMutability": "view",
      "type": "function"
    },
    {
      "inputs": [
        {
          "internalType": "address",
          "name": "owner",
          "type": "address"
        },
        {
          "internalType": "address",
          "name": "operator",
          "type": "address"
        }
      ],
      "name": "isApprovedForAll",
      "outputs": [
        {
          "internalType": "bool",
          "name": "",
          "type": "bool"
        }
      ],
      "stateMutability": "view",
      "type": "function"
    },
    {
      "inputs": [
        {
          "internalType": "uint256",
          "name": "",
          "type": "uint256"
        }
      ],
      "name": "items",
      "outputs": [
        {
          "internalType": "uint256",
          "name": "itemID",
          "type": "uint256"
        },
        {
          "internalType": "uint256",
          "name": "royaltiyFee",
          "type": "uint256"
        },
        {
          "internalType": "address",
          "name": "creator",
          "type": "address"
        },
        {
          "internalType": "string",
          "name": "tokenUri",
          "type": "string"
        }
      ],
      "stateMutability": "view",
      "type": "function"
    },
    {
      "inputs": [
        {
          "internalType": "string",
          "name": "_tokenURI",
          "type": "string"
        },
        {
          "internalType": "uint256",
          "name": "_royaltyFee",
          "type": "uint256"
        }
      ],
      "name": "mint",
      "outputs": [
        {
          "internalType": "uint256",
          "name": "",
          "type": "uint256"
        }
      ],
      "stateMutability": "nonpayable",
      "type": "function"
    },
    {
      "inputs": [
        {
          "internalType": "string",
          "name": "_tokenURI",
          "type": "string"
        },
        {
          "internalType": "address",
          "name": "ownerNft",
          "type": "address"
        }
      ],
      "name": "mintBis",
      "outputs": [
        {
          "internalType": "uint256",
          "name": "",
          "type": "uint256"
        }
      ],
      "stateMutability": "nonpayable",
      "type": "function"
    },
    {
      "inputs": [],
      "name": "name",
      "outputs": [
        {
          "internalType": "string",
          "name": "",
          "type": "string"
        }
      ],
      "stateMutability": "view",
      "type": "function"
    },
    {
      "inputs": [
        {
          "internalType": "uint256",
          "name": "tokenId",
          "type": "uint256"
        }
      ],
      "name": "ownerOf",
      "outputs": [
        {
          "internalType": "address",
          "name": "",
          "type": "address"
        }
      ],
      "stateMutability": "view",
      "type": "function"
    },
    {
      "inputs": [
        {
          "internalType": "address",
          "name": "from",
          "type": "address"
        },
        {
          "internalType": "address",
          "name": "to",
          "type": "address"
        },
        {
          "internalType": "uint256",
          "name": "tokenId",
          "type": "uint256"
        }
      ],
      "name": "safeTransferFrom",
      "outputs": [],
      "stateMutability": "nonpayable",
      "type": "function"
    },
    {
      "inputs": [
        {
          "internalType": "address",
          "name": "from",
          "type": "address"
        },
        {
          "internalType": "address",
          "name": "to",
          "type": "address"
        },
        {
          "internalType": "uint256",
          "name": "tokenId",
          "type": "uint256"
        },
        {
          "internalType": "bytes",
          "name": "_data",
          "type": "bytes"
        }
      ],
      "name": "safeTransferFrom",
      "outputs": [],
      "stateMutability": "nonpayable",
      "type": "function"
    },
    {
      "inputs": [
        {
          "internalType": "address",
          "name": "operator",
          "type": "address"
        },
        {
          "internalType": "bool",
          "name": "approved",
          "type": "bool"
        }
      ],
      "name": "setApprovalForAll",
      "outputs": [],
      "stateMutability": "nonpayable",
      "type": "function"
    },
    {
      "inputs": [
        {
          "internalType": "bytes4",
          "name": "interfaceId",
          "type": "bytes4"
        }
      ],
      "name": "supportsInterface",
      "outputs": [
        {
          "internalType": "bool",
          "name": "",
          "type": "bool"
        }
      ],
      "stateMutability": "view",
      "type": "function"
    },
    {
      "inputs": [],
      "name": "symbol",
      "outputs": [
        {
          "internalType": "string",
          "name": "",
          "type": "string"
        }
      ],
      "stateMutability": "view",
      "type": "function"
    },
    {
      "inputs": [],
      "name": "tokenCount",
      "outputs": [
        {
          "internalType": "uint256",
          "name": "",
          "type": "uint256"
        }
      ],
      "stateMutability": "view",
      "type": "function"
    },
    {
      "inputs": [
        {
          "internalType": "uint256",
          "name": "tokenId",
          "type": "uint256"
        }
      ],
      "name": "tokenURI",
      "outputs": [
        {
          "internalType": "string",
          "name": "",
          "type": "string"
        }
      ],
      "stateMutability": "view",
      "type": "function"
    },
    {
      "inputs": [
        {
          "internalType": "address",
          "name": "from",
          "type": "address"
        },
        {
          "internalType": "address",
          "name": "to",
          "type": "address"
        },
        {
          "internalType": "uint256",
          "name": "tokenId",
          "type": "uint256"
        }
      ],
      "name": "transferFrom",
      "outputs": [],
      "stateMutability": "nonpayable",
      "type": "function"
    }
  ],
  "bytecode": "0x60806040523480156200001157600080fd5b506040518060400160405280600a81526020017f42727574616c204e4654000000000000000000000000000000000000000000008152506040518060400160405280600681526020017f42727574616c0000000000000000000000000000000000000000000000000000815250816000908051906020019062000096929190620000b8565b508060019080519060200190620000af929190620000b8565b505050620001cd565b828054620000c69062000168565b90600052602060002090601f016020900481019282620000ea576000855562000136565b82601f106200010557805160ff191683800117855562000136565b8280016001018555821562000136579182015b828111156200013557825182559160200191906001019062000118565b5b50905062000145919062000149565b5090565b5b80821115620001645760008160009055506001016200014a565b5090565b600060028204905060018216806200018157607f821691505b602082108114156200019857620001976200019e565b5b50919050565b7f4e487b7100000000000000000000000000000000000000000000000000000000600052602260045260246000fd5b61336780620001dd6000396000f3fe608060405234801561001057600080fd5b50600436106101215760003560e01c80636352211e116100ad578063b88d4fde11610071578063b88d4fde1461032e578063bfb231d21461034a578063c87b56dd1461037d578063e358ff99146103ad578063e985e9c5146103dd57610121565b80636352211e1461027657806370a08231146102a657806395d89b41146102d65780639f181b5e146102f4578063a22cb4651461031257610121565b8063095ea7b3116100f4578063095ea7b3146101d45780630f143d1d146101f057806323b872dd1461022057806342842e0e1461023c57806343bc16121461025857610121565b806301ffc9a714610126578063056b01ce1461015657806306fdde0314610186578063081812fc146101a4575b600080fd5b610140600480360381019061013b9190612171565b61040d565b60405161014d91906126fc565b60405180910390f35b610170600480360381019061016b9190612217565b6104ef565b60405161017d91906129ab565b60405180910390f35b61018e610639565b60405161019b9190612717565b60405180910390f35b6101be60048036038101906101b9919061226b565b6106cb565b6040516101cb9190612695565b60405180910390f35b6101ee60048036038101906101e99190612135565b610750565b005b61020a600480360381019061020591906121c3565b610868565b60405161021791906129ab565b60405180910390f35b61023a6004803603810190610235919061202f565b61090e565b005b6102566004803603810190610251919061202f565b61096e565b005b61026061098e565b60405161026d9190612695565b60405180910390f35b610290600480360381019061028b919061226b565b6109b4565b60405161029d9190612695565b60405180910390f35b6102c060048036038101906102bb9190611fca565b610a66565b6040516102cd91906129ab565b60405180910390f35b6102de610b1e565b6040516102eb9190612717565b60405180910390f35b6102fc610bb0565b60405161030991906129ab565b60405180910390f35b61032c600480360381019061032791906120f9565b610bb6565b005b6103486004803603810190610343919061207e565b610bcc565b005b610364600480360381019061035f919061226b565b610c2e565b60405161037494939291906129c6565b60405180910390f35b6103976004803603810190610392919061226b565b610d06565b6040516103a49190612717565b60405180910390f35b6103c760048036038101906103c2919061226b565b610e58565b6040516103d49190612989565b60405180910390f35b6103f760048036038101906103f29190611ff3565b610f81565b60405161040491906126fc565b60405180910390f35b60007f80ac58cd000000000000000000000000000000000000000000000000000000007bffffffffffffffffffffffffffffffffffffffffffffffffffffffff1916827bffffffffffffffffffffffffffffffffffffffffffffffffffffffff191614806104d857507f5b5e139f000000000000000000000000000000000000000000000000000000007bffffffffffffffffffffffffffffffffffffffffffffffffffffffff1916827bffffffffffffffffffffffffffffffffffffffffffffffffffffffff1916145b806104e857506104e782611015565b5b9050919050565b6000600a821115610535576040517f08c379a000000000000000000000000000000000000000000000000000000000815260040161052c90612969565b60405180910390fd5b6007600081548092919061054890612cc1565b91905055506105593360075461107f565b6105656007548461109d565b604051806080016040528060075481526020018381526020013373ffffffffffffffffffffffffffffffffffffffff16815260200184815250600960006007548152602001908152602001600020600082015181600001556020820151816001015560408201518160020160006101000a81548173ffffffffffffffffffffffffffffffffffffffff021916908373ffffffffffffffffffffffffffffffffffffffff160217905550606082015181600301908051906020019061062a929190611db0565b50905050600754905092915050565b60606000805461064890612c5e565b80601f016020809104026020016040519081016040528092919081815260200182805461067490612c5e565b80156106c15780601f10610696576101008083540402835291602001916106c1565b820191906000526020600020905b8154815290600101906020018083116106a457829003601f168201915b5050505050905090565b60006106d682611111565b610715576040517f08c379a000000000000000000000000000000000000000000000000000000000815260040161070c906128e9565b60405180910390fd5b6004600083815260200190815260200160002060009054906101000a900473ffffffffffffffffffffffffffffffffffffffff169050919050565b600061075b826109b4565b90508073ffffffffffffffffffffffffffffffffffffffff168373ffffffffffffffffffffffffffffffffffffffff1614156107cc576040517f08c379a00000000000000000000000000000000000000000000000000000000081526004016107c390612929565b60405180910390fd5b8073ffffffffffffffffffffffffffffffffffffffff166107eb61117d565b73ffffffffffffffffffffffffffffffffffffffff16148061081a57506108198161081461117d565b610f81565b5b610859576040517f08c379a000000000000000000000000000000000000000000000000000000000815260040161085090612829565b60405180910390fd5b6108638383611185565b505050565b60006007600081548092919061087d90612cc1565b919050555061088e8260075461107f565b61089a6007548461109d565b8173ffffffffffffffffffffffffffffffffffffffff163073ffffffffffffffffffffffffffffffffffffffff167f4dc24097c6827d1697cd49c84e5c1a8ea84780507858b1762011856c43b6715a856007546040516108fb929190612739565b60405180910390a3600754905092915050565b61091f61091961117d565b8261123e565b61095e576040517f08c379a000000000000000000000000000000000000000000000000000000000815260040161095590612949565b60405180910390fd5b61096983838361131c565b505050565b61098983838360405180602001604052806000815250610bcc565b505050565b600860009054906101000a900473ffffffffffffffffffffffffffffffffffffffff1681565b6000806002600084815260200190815260200160002060009054906101000a900473ffffffffffffffffffffffffffffffffffffffff169050600073ffffffffffffffffffffffffffffffffffffffff168173ffffffffffffffffffffffffffffffffffffffff161415610a5d576040517f08c379a0000000000000000000000000000000000000000000000000000000008152600401610a5490612869565b60405180910390fd5b80915050919050565b60008073ffffffffffffffffffffffffffffffffffffffff168273ffffffffffffffffffffffffffffffffffffffff161415610ad7576040517f08c379a0000000000000000000000000000000000000000000000000000000008152600401610ace90612849565b60405180910390fd5b600360008373ffffffffffffffffffffffffffffffffffffffff1673ffffffffffffffffffffffffffffffffffffffff168152602001908152602001600020549050919050565b606060018054610b2d90612c5e565b80601f0160208091040260200160405190810160405280929190818152602001828054610b5990612c5e565b8015610ba65780601f10610b7b57610100808354040283529160200191610ba6565b820191906000526020600020905b815481529060010190602001808311610b8957829003601f168201915b5050505050905090565b60075481565b610bc8610bc161117d565b8383611583565b5050565b610bdd610bd761117d565b8361123e565b610c1c576040517f08c379a0000000000000000000000000000000000000000000000000000000008152600401610c1390612949565b60405180910390fd5b610c28848484846116f0565b50505050565b60096020528060005260406000206000915090508060000154908060010154908060020160009054906101000a900473ffffffffffffffffffffffffffffffffffffffff1690806003018054610c8390612c5e565b80601f0160208091040260200160405190810160405280929190818152602001828054610caf90612c5e565b8015610cfc5780601f10610cd157610100808354040283529160200191610cfc565b820191906000526020600020905b815481529060010190602001808311610cdf57829003601f168201915b5050505050905084565b6060610d1182611111565b610d50576040517f08c379a0000000000000000000000000000000000000000000000000000000008152600401610d47906128c9565b60405180910390fd5b6000600660008481526020019081526020016000208054610d7090612c5e565b80601f0160208091040260200160405190810160405280929190818152602001828054610d9c90612c5e565b8015610de95780601f10610dbe57610100808354040283529160200191610de9565b820191906000526020600020905b815481529060010190602001808311610dcc57829003601f168201915b505050505090506000610dfa61174c565b9050600081511415610e10578192505050610e53565b600082511115610e45578082604051602001610e2d929190612671565b60405160208183030381529060405292505050610e53565b610e4e84611763565b925050505b919050565b610e60611e36565b6009600083815260200190815260200160002060405180608001604052908160008201548152602001600182015481526020016002820160009054906101000a900473ffffffffffffffffffffffffffffffffffffffff1673ffffffffffffffffffffffffffffffffffffffff1673ffffffffffffffffffffffffffffffffffffffff168152602001600382018054610ef890612c5e565b80601f0160208091040260200160405190810160405280929190818152602001828054610f2490612c5e565b8015610f715780601f10610f4657610100808354040283529160200191610f71565b820191906000526020600020905b815481529060010190602001808311610f5457829003601f168201915b5050505050815250509050919050565b6000600560008473ffffffffffffffffffffffffffffffffffffffff1673ffffffffffffffffffffffffffffffffffffffff16815260200190815260200160002060008373ffffffffffffffffffffffffffffffffffffffff1673ffffffffffffffffffffffffffffffffffffffff16815260200190815260200160002060009054906101000a900460ff16905092915050565b60007f01ffc9a7000000000000000000000000000000000000000000000000000000007bffffffffffffffffffffffffffffffffffffffffffffffffffffffff1916827bffffffffffffffffffffffffffffffffffffffffffffffffffffffff1916149050919050565b61109982826040518060200160405280600081525061180a565b5050565b6110a682611111565b6110e5576040517f08c379a00000000000000000000000000000000000000000000000000000000081526004016110dc90612889565b60405180910390fd5b8060066000848152602001908152602001600020908051906020019061110c929190611db0565b505050565b60008073ffffffffffffffffffffffffffffffffffffffff166002600084815260200190815260200160002060009054906101000a900473ffffffffffffffffffffffffffffffffffffffff1673ffffffffffffffffffffffffffffffffffffffff1614159050919050565b600033905090565b816004600083815260200190815260200160002060006101000a81548173ffffffffffffffffffffffffffffffffffffffff021916908373ffffffffffffffffffffffffffffffffffffffff160217905550808273ffffffffffffffffffffffffffffffffffffffff166111f8836109b4565b73ffffffffffffffffffffffffffffffffffffffff167f8c5be1e5ebec7d5bd14f71427d1e84f3dd0314c0f7b2291e5b200ac8c7c3b92560405160405180910390a45050565b600061124982611111565b611288576040517f08c379a000000000000000000000000000000000000000000000000000000000815260040161127f90612809565b60405180910390fd5b6000611293836109b4565b90508073ffffffffffffffffffffffffffffffffffffffff168473ffffffffffffffffffffffffffffffffffffffff16148061130257508373ffffffffffffffffffffffffffffffffffffffff166112ea846106cb565b73ffffffffffffffffffffffffffffffffffffffff16145b8061131357506113128185610f81565b5b91505092915050565b8273ffffffffffffffffffffffffffffffffffffffff1661133c826109b4565b73ffffffffffffffffffffffffffffffffffffffff1614611392576040517f08c379a000000000000000000000000000000000000000000000000000000000815260040161138990612789565b60405180910390fd5b600073ffffffffffffffffffffffffffffffffffffffff168273ffffffffffffffffffffffffffffffffffffffff161415611402576040517f08c379a00000000000000000000000000000000000000000000000000000000081526004016113f9906127c9565b60405180910390fd5b61140d838383611865565b611418600082611185565b6001600360008573ffffffffffffffffffffffffffffffffffffffff1673ffffffffffffffffffffffffffffffffffffffff16815260200190815260200160002060008282546114689190612b74565b925050819055506001600360008473ffffffffffffffffffffffffffffffffffffffff1673ffffffffffffffffffffffffffffffffffffffff16815260200190815260200160002060008282546114bf9190612aed565b92505081905550816002600083815260200190815260200160002060006101000a81548173ffffffffffffffffffffffffffffffffffffffff021916908373ffffffffffffffffffffffffffffffffffffffff160217905550808273ffffffffffffffffffffffffffffffffffffffff168473ffffffffffffffffffffffffffffffffffffffff167fddf252ad1be2c89b69c2b068fc378daa952ba7f163c4a11628f55a4df523b3ef60405160405180910390a461157e83838361186a565b505050565b8173ffffffffffffffffffffffffffffffffffffffff168373ffffffffffffffffffffffffffffffffffffffff1614156115f2576040517f08c379a00000000000000000000000000000000000000000000000000000000081526004016115e9906127e9565b60405180910390fd5b80600560008573ffffffffffffffffffffffffffffffffffffffff1673ffffffffffffffffffffffffffffffffffffffff16815260200190815260200160002060008473ffffffffffffffffffffffffffffffffffffffff1673ffffffffffffffffffffffffffffffffffffffff16815260200190815260200160002060006101000a81548160ff0219169083151502179055508173ffffffffffffffffffffffffffffffffffffffff168373ffffffffffffffffffffffffffffffffffffffff167f17307eab39ab6107e8899845ad3d59bd9653f200f220920489ca2b5937696c31836040516116e391906126fc565b60405180910390a3505050565b6116fb84848461131c565b6117078484848461186f565b611746576040517f08c379a000000000000000000000000000000000000000000000000000000000815260040161173d90612769565b60405180910390fd5b50505050565b606060405180602001604052806000815250905090565b606061176e82611111565b6117ad576040517f08c379a00000000000000000000000000000000000000000000000000000000081526004016117a490612909565b60405180910390fd5b60006117b761174c565b905060008151116117d75760405180602001604052806000815250611802565b806117e184611a06565b6040516020016117f2929190612671565b6040516020818303038152906040525b915050919050565b6118148383611bb3565b611821600084848461186f565b611860576040517f08c379a000000000000000000000000000000000000000000000000000000000815260040161185790612769565b60405180910390fd5b505050565b505050565b505050565b60006118908473ffffffffffffffffffffffffffffffffffffffff16611d8d565b156119f9578373ffffffffffffffffffffffffffffffffffffffff1663150b7a026118b961117d565b8786866040518563ffffffff1660e01b81526004016118db94939291906126b0565b602060405180830381600087803b1580156118f557600080fd5b505af192505050801561192657506040513d601f19601f82011682018060405250810190611923919061219a565b60015b6119a9573d8060008114611956576040519150601f19603f3d011682016040523d82523d6000602084013e61195b565b606091505b506000815114156119a1576040517f08c379a000000000000000000000000000000000000000000000000000000000815260040161199890612769565b60405180910390fd5b805181602001fd5b63150b7a0260e01b7bffffffffffffffffffffffffffffffffffffffffffffffffffffffff1916817bffffffffffffffffffffffffffffffffffffffffffffffffffffffff1916149150506119fe565b600190505b949350505050565b60606000821415611a4e576040518060400160405280600181526020017f30000000000000000000000000000000000000000000000000000000000000008152509050611bae565b600082905060005b60008214611a80578080611a6990612cc1565b915050600a82611a799190612b43565b9150611a56565b60008167ffffffffffffffff811115611ac2577f4e487b7100000000000000000000000000000000000000000000000000000000600052604160045260246000fd5b6040519080825280601f01601f191660200182016040528015611af45781602001600182028036833780820191505090505b5090505b60008514611ba757600182611b0d9190612b74565b9150600a85611b1c9190612d0a565b6030611b289190612aed565b60f81b818381518110611b64577f4e487b7100000000000000000000000000000000000000000000000000000000600052603260045260246000fd5b60200101907effffffffffffffffffffffffffffffffffffffffffffffffffffffffffffff1916908160001a905350600a85611ba09190612b43565b9450611af8565b8093505050505b919050565b600073ffffffffffffffffffffffffffffffffffffffff168273ffffffffffffffffffffffffffffffffffffffff161415611c23576040517f08c379a0000000000000000000000000000000000000000000000000000000008152600401611c1a906128a9565b60405180910390fd5b611c2c81611111565b15611c6c576040517f08c379a0000000000000000000000000000000000000000000000000000000008152600401611c63906127a9565b60405180910390fd5b611c7860008383611865565b6001600360008473ffffffffffffffffffffffffffffffffffffffff1673ffffffffffffffffffffffffffffffffffffffff1681526020019081526020016000206000828254611cc89190612aed565b92505081905550816002600083815260200190815260200160002060006101000a81548173ffffffffffffffffffffffffffffffffffffffff021916908373ffffffffffffffffffffffffffffffffffffffff160217905550808273ffffffffffffffffffffffffffffffffffffffff16600073ffffffffffffffffffffffffffffffffffffffff167fddf252ad1be2c89b69c2b068fc378daa952ba7f163c4a11628f55a4df523b3ef60405160405180910390a4611d896000838361186a565b5050565b6000808273ffffffffffffffffffffffffffffffffffffffff163b119050919050565b828054611dbc90612c5e565b90600052602060002090601f016020900481019282611dde5760008555611e25565b82601f10611df757805160ff1916838001178555611e25565b82800160010185558215611e25579182015b82811115611e24578251825591602001919060010190611e09565b5b509050611e329190611e74565b5090565b60405180608001604052806000815260200160008152602001600073ffffffffffffffffffffffffffffffffffffffff168152602001606081525090565b5b80821115611e8d576000816000905550600101611e75565b5090565b6000611ea4611e9f84612a37565b612a12565b905082815260208101848484011115611ebc57600080fd5b611ec7848285612c1c565b509392505050565b6000611ee2611edd84612a68565b612a12565b905082815260208101848484011115611efa57600080fd5b611f05848285612c1c565b509392505050565b600081359050611f1c816132d5565b92915050565b600081359050611f31816132ec565b92915050565b600081359050611f4681613303565b92915050565b600081519050611f5b81613303565b92915050565b600082601f830112611f7257600080fd5b8135611f82848260208601611e91565b91505092915050565b600082601f830112611f9c57600080fd5b8135611fac848260208601611ecf565b91505092915050565b600081359050611fc48161331a565b92915050565b600060208284031215611fdc57600080fd5b6000611fea84828501611f0d565b91505092915050565b6000806040838503121561200657600080fd5b600061201485828601611f0d565b925050602061202585828601611f0d565b9150509250929050565b60008060006060848603121561204457600080fd5b600061205286828701611f0d565b935050602061206386828701611f0d565b925050604061207486828701611fb5565b9150509250925092565b6000806000806080858703121561209457600080fd5b60006120a287828801611f0d565b94505060206120b387828801611f0d565b93505060406120c487828801611fb5565b925050606085013567ffffffffffffffff8111156120e157600080fd5b6120ed87828801611f61565b91505092959194509250565b6000806040838503121561210c57600080fd5b600061211a85828601611f0d565b925050602061212b85828601611f22565b9150509250929050565b6000806040838503121561214857600080fd5b600061215685828601611f0d565b925050602061216785828601611fb5565b9150509250929050565b60006020828403121561218357600080fd5b600061219184828501611f37565b91505092915050565b6000602082840312156121ac57600080fd5b60006121ba84828501611f4c565b91505092915050565b600080604083850312156121d657600080fd5b600083013567ffffffffffffffff8111156121f057600080fd5b6121fc85828601611f8b565b925050602061220d85828601611f0d565b9150509250929050565b6000806040838503121561222a57600080fd5b600083013567ffffffffffffffff81111561224457600080fd5b61225085828601611f8b565b925050602061226185828601611fb5565b9150509250929050565b60006020828403121561227d57600080fd5b600061228b84828501611fb5565b91505092915050565b61229d81612ba8565b82525050565b6122ac81612ba8565b82525050565b6122bb81612bba565b82525050565b60006122cc82612a99565b6122d68185612aaf565b93506122e6818560208601612c2b565b6122ef81612df7565b840191505092915050565b600061230582612aa4565b61230f8185612ac0565b935061231f818560208601612c2b565b61232881612df7565b840191505092915050565b600061233e82612aa4565b6123488185612ad1565b9350612358818560208601612c2b565b61236181612df7565b840191505092915050565b600061237782612aa4565b6123818185612ae2565b9350612391818560208601612c2b565b80840191505092915050565b60006123aa603283612ad1565b91506123b582612e08565b604082019050919050565b60006123cd602583612ad1565b91506123d882612e57565b604082019050919050565b60006123f0601c83612ad1565b91506123fb82612ea6565b602082019050919050565b6000612413602483612ad1565b915061241e82612ecf565b604082019050919050565b6000612436601983612ad1565b915061244182612f1e565b602082019050919050565b6000612459602c83612ad1565b915061246482612f47565b604082019050919050565b600061247c603883612ad1565b915061248782612f96565b604082019050919050565b600061249f602a83612ad1565b91506124aa82612fe5565b604082019050919050565b60006124c2602983612ad1565b91506124cd82613034565b604082019050919050565b60006124e5602e83612ad1565b91506124f082613083565b604082019050919050565b6000612508602083612ad1565b9150612513826130d2565b602082019050919050565b600061252b603183612ad1565b9150612536826130fb565b604082019050919050565b600061254e602c83612ad1565b91506125598261314a565b604082019050919050565b6000612571602f83612ad1565b915061257c82613199565b604082019050919050565b6000612594602183612ad1565b915061259f826131e8565b604082019050919050565b60006125b7603183612ad1565b91506125c282613237565b604082019050919050565b60006125da602283612ad1565b91506125e582613286565b604082019050919050565b60006080830160008301516126086000860182612653565b50602083015161261b6020860182612653565b50604083015161262e6040860182612294565b506060830151848203606086015261264682826122fa565b9150508091505092915050565b61265c81612c12565b82525050565b61266b81612c12565b82525050565b600061267d828561236c565b9150612689828461236c565b91508190509392505050565b60006020820190506126aa60008301846122a3565b92915050565b60006080820190506126c560008301876122a3565b6126d260208301866122a3565b6126df6040830185612662565b81810360608301526126f181846122c1565b905095945050505050565b600060208201905061271160008301846122b2565b92915050565b600060208201905081810360008301526127318184612333565b905092915050565b600060408201905081810360008301526127538185612333565b90506127626020830184612662565b9392505050565b600060208201905081810360008301526127828161239d565b9050919050565b600060208201905081810360008301526127a2816123c0565b9050919050565b600060208201905081810360008301526127c2816123e3565b9050919050565b600060208201905081810360008301526127e281612406565b9050919050565b6000602082019050818103600083015261280281612429565b9050919050565b600060208201905081810360008301526128228161244c565b9050919050565b600060208201905081810360008301526128428161246f565b9050919050565b6000602082019050818103600083015261286281612492565b9050919050565b60006020820190508181036000830152612882816124b5565b9050919050565b600060208201905081810360008301526128a2816124d8565b9050919050565b600060208201905081810360008301526128c2816124fb565b9050919050565b600060208201905081810360008301526128e28161251e565b9050919050565b6000602082019050818103600083015261290281612541565b9050919050565b6000602082019050818103600083015261292281612564565b9050919050565b6000602082019050818103600083015261294281612587565b9050919050565b60006020820190508181036000830152612962816125aa565b9050919050565b60006020820190508181036000830152612982816125cd565b9050919050565b600060208201905081810360008301526129a381846125f0565b905092915050565b60006020820190506129c06000830184612662565b92915050565b60006080820190506129db6000830187612662565b6129e86020830186612662565b6129f560408301856122a3565b8181036060830152612a078184612333565b905095945050505050565b6000612a1c612a2d565b9050612a288282612c90565b919050565b6000604051905090565b600067ffffffffffffffff821115612a5257612a51612dc8565b5b612a5b82612df7565b9050602081019050919050565b600067ffffffffffffffff821115612a8357612a82612dc8565b5b612a8c82612df7565b9050602081019050919050565b600081519050919050565b600081519050919050565b600082825260208201905092915050565b600082825260208201905092915050565b600082825260208201905092915050565b600081905092915050565b6000612af882612c12565b9150612b0383612c12565b9250827fffffffffffffffffffffffffffffffffffffffffffffffffffffffffffffffff03821115612b3857612b37612d3b565b5b828201905092915050565b6000612b4e82612c12565b9150612b5983612c12565b925082612b6957612b68612d6a565b5b828204905092915050565b6000612b7f82612c12565b9150612b8a83612c12565b925082821015612b9d57612b9c612d3b565b5b828203905092915050565b6000612bb382612bf2565b9050919050565b60008115159050919050565b60007fffffffff0000000000000000000000000000000000000000000000000000000082169050919050565b600073ffffffffffffffffffffffffffffffffffffffff82169050919050565b6000819050919050565b82818337600083830152505050565b60005b83811015612c49578082015181840152602081019050612c2e565b83811115612c58576000848401525b50505050565b60006002820490506001821680612c7657607f821691505b60208210811415612c8a57612c89612d99565b5b50919050565b612c9982612df7565b810181811067ffffffffffffffff82111715612cb857612cb7612dc8565b5b80604052505050565b6000612ccc82612c12565b91507fffffffffffffffffffffffffffffffffffffffffffffffffffffffffffffffff821415612cff57612cfe612d3b565b5b600182019050919050565b6000612d1582612c12565b9150612d2083612c12565b925082612d3057612d2f612d6a565b5b828206905092915050565b7f4e487b7100000000000000000000000000000000000000000000000000000000600052601160045260246000fd5b7f4e487b7100000000000000000000000000000000000000000000000000000000600052601260045260246000fd5b7f4e487b7100000000000000000000000000000000000000000000000000000000600052602260045260246000fd5b7f4e487b7100000000000000000000000000000000000000000000000000000000600052604160045260246000fd5b6000601f19601f8301169050919050565b7f4552433732313a207472616e7366657220746f206e6f6e20455243373231526560008201527f63656976657220696d706c656d656e7465720000000000000000000000000000602082015250565b7f4552433732313a207472616e736665722066726f6d20696e636f72726563742060008201527f6f776e6572000000000000000000000000000000000000000000000000000000602082015250565b7f4552433732313a20746f6b656e20616c7265616479206d696e74656400000000600082015250565b7f4552433732313a207472616e7366657220746f20746865207a65726f2061646460008201527f7265737300000000000000000000000000000000000000000000000000000000602082015250565b7f4552433732313a20617070726f766520746f2063616c6c657200000000000000600082015250565b7f4552433732313a206f70657261746f7220717565727920666f72206e6f6e657860008201527f697374656e7420746f6b656e0000000000000000000000000000000000000000602082015250565b7f4552433732313a20617070726f76652063616c6c6572206973206e6f74206f7760008201527f6e6572206e6f7220617070726f76656420666f7220616c6c0000000000000000602082015250565b7f4552433732313a2062616c616e636520717565727920666f7220746865207a6560008201527f726f206164647265737300000000000000000000000000000000000000000000602082015250565b7f4552433732313a206f776e657220717565727920666f72206e6f6e657869737460008201527f656e7420746f6b656e0000000000000000000000000000000000000000000000602082015250565b7f45524337323155524953746f726167653a2055524920736574206f66206e6f6e60008201527f6578697374656e7420746f6b656e000000000000000000000000000000000000602082015250565b7f4552433732313a206d696e7420746f20746865207a65726f2061646472657373600082015250565b7f45524337323155524953746f726167653a2055524920717565727920666f722060008201527f6e6f6e6578697374656e7420746f6b656e000000000000000000000000000000602082015250565b7f4552433732313a20617070726f76656420717565727920666f72206e6f6e657860008201527f697374656e7420746f6b656e0000000000000000000000000000000000000000602082015250565b7f4552433732314d657461646174613a2055524920717565727920666f72206e6f60008201527f6e6578697374656e7420746f6b656e0000000000000000000000000000000000602082015250565b7f4552433732313a20617070726f76616c20746f2063757272656e74206f776e6560008201527f7200000000000000000000000000000000000000000000000000000000000000602082015250565b7f4552433732313a207472616e736665722063616c6c6572206973206e6f74206f60008201527f776e6572206e6f7220617070726f766564000000000000000000000000000000602082015250565b7f54686520726f79616c7469657320697320746f6f20686967682021204772656560008201527f6479000000000000000000000000000000000000000000000000000000000000602082015250565b6132de81612ba8565b81146132e957600080fd5b50565b6132f581612bba565b811461330057600080fd5b50565b61330c81612bc6565b811461331757600080fd5b50565b61332381612c12565b811461332e57600080fd5b5056fea2646970667358221220652f71f4a0594143b3e918aa391ae6f16313f0ee441304b47b72b1ff5060723764736f6c63430008040033",
  "linkReferences": {},
  "deployedLinkReferences": {}
}