{
  "_format": "hh-sol-artifact-1",
  "contractName": "NFT",
  "sourceName": "src/backend/contracts/NFT.sol",
  "abi": [
    {
      "inputs": [],
      "stateMutability": "nonpayable",
      "type": "constructor"
    },
    {
      "anonymous": false,
      "inputs": [
        {
          "indexed": true,
          "internalType": "address",
          "name": "owner",
          "type": "address"
        },
        {
          "indexed": true,
          "internalType": "address",
          "name": "approved",
          "type": "address"
        },
        {
          "indexed": true,
          "internalType": "uint256",
          "name": "tokenId",
          "type": "uint256"
        }
      ],
      "name": "Approval",
      "type": "event"
    },
    {
      "anonymous": false,
      "inputs": [
        {
          "indexed": true,
          "internalType": "address",
          "name": "owner",
          "type": "address"
        },
        {
          "indexed": true,
          "internalType": "address",
          "name": "operator",
          "type": "address"
        },
        {
          "indexed": false,
          "internalType": "bool",
          "name": "approved",
          "type": "bool"
        }
      ],
      "name": "ApprovalForAll",
      "type": "event"
    },
    {
      "anonymous": false,
      "inputs": [
        {
          "indexed": true,
          "internalType": "address",
          "name": "from",
          "type": "address"
        },
        {
          "indexed": true,
          "internalType": "address",
          "name": "to",
          "type": "address"
        },
        {
          "indexed": true,
          "internalType": "uint256",
          "name": "tokenId",
          "type": "uint256"
        }
      ],
      "name": "Transfer",
      "type": "event"
    },
    {
      "anonymous": false,
      "inputs": [
        {
          "indexed": false,
          "internalType": "string",
          "name": "_tokenURINFT",
          "type": "string"
        },
        {
          "indexed": true,
          "internalType": "address",
          "name": "nft",
          "type": "address"
        },
        {
          "indexed": false,
          "internalType": "uint256",
          "name": "tokenID",
          "type": "uint256"
        },
        {
          "indexed": true,
          "internalType": "address",
          "name": "_ownerNFT",
          "type": "address"
        }
      ],
      "name": "mintBisEvent",
      "type": "event"
    },
    {
      "inputs": [
        {
          "internalType": "address",
          "name": "to",
          "type": "address"
        },
        {
          "internalType": "uint256",
          "name": "tokenId",
          "type": "uint256"
        }
      ],
      "name": "approve",
      "outputs": [],
      "stateMutability": "nonpayable",
      "type": "function"
    },
    {
      "inputs": [],
      "name": "artist",
      "outputs": [
        {
          "internalType": "address",
          "name": "",
          "type": "address"
        }
      ],
      "stateMutability": "view",
      "type": "function"
    },
    {
      "inputs": [
        {
          "internalType": "address",
          "name": "owner",
          "type": "address"
        }
      ],
      "name": "balanceOf",
      "outputs": [
        {
          "internalType": "uint256",
          "name": "",
          "type": "uint256"
        }
      ],
      "stateMutability": "view",
      "type": "function"
    },
    {
      "inputs": [
        {
          "internalType": "uint256",
          "name": "tokenId",
          "type": "uint256"
        }
      ],
      "name": "getApproved",
      "outputs": [
        {
          "internalType": "address",
          "name": "",
          "type": "address"
        }
      ],
      "stateMutability": "view",
      "type": "function"
    },
    {
      "inputs": [
        {
          "internalType": "uint256",
          "name": "_itemId",
          "type": "uint256"
        }
      ],
      "name": "getRoyaltiesInfos",
      "outputs": [
        {
          "components": [
            {
              "internalType": "uint256",
              "name": "itemID",
              "type": "uint256"
            },
            {
              "internalType": "uint256",
              "name": "royaltiyFee",
              "type": "uint256"
            },
            {
              "internalType": "address",
              "name": "creator",
              "type": "address"
            },
            {
              "internalType": "string",
              "name": "tokenUri",
              "type": "string"
            }
          ],
          "internalType": "struct NFT.Item",
          "name": "",
          "type": "tuple"
        }
      ],
      "stateMutability": "view",
      "type": "function"
    },
    {
      "inputs": [
        {
          "internalType": "address",
          "name": "owner",
          "type": "address"
        },
        {
          "internalType": "address",
          "name": "operator",
          "type": "address"
        }
      ],
      "name": "isApprovedForAll",
      "outputs": [
        {
          "internalType": "bool",
          "name": "",
          "type": "bool"
        }
      ],
      "stateMutability": "view",
      "type": "function"
    },
    {
      "inputs": [
        {
          "internalType": "uint256",
          "name": "",
          "type": "uint256"
        }
      ],
      "name": "items",
      "outputs": [
        {
          "internalType": "uint256",
          "name": "itemID",
          "type": "uint256"
        },
        {
          "internalType": "uint256",
          "name": "royaltiyFee",
          "type": "uint256"
        },
        {
          "internalType": "address",
          "name": "creator",
          "type": "address"
        },
        {
          "internalType": "string",
          "name": "tokenUri",
          "type": "string"
        }
      ],
      "stateMutability": "view",
      "type": "function"
    },
    {
      "inputs": [
        {
          "internalType": "string",
          "name": "_tokenURI",
          "type": "string"
        },
        {
          "internalType": "uint256",
          "name": "_royaltyFee",
          "type": "uint256"
        }
      ],
      "name": "mint",
      "outputs": [
        {
          "internalType": "uint256",
          "name": "",
          "type": "uint256"
        }
      ],
      "stateMutability": "nonpayable",
      "type": "function"
    },
    {
      "inputs": [],
      "name": "name",
      "outputs": [
        {
          "internalType": "string",
          "name": "",
          "type": "string"
        }
      ],
      "stateMutability": "view",
      "type": "function"
    },
    {
      "inputs": [
        {
          "internalType": "uint256",
          "name": "tokenId",
          "type": "uint256"
        }
      ],
      "name": "ownerOf",
      "outputs": [
        {
          "internalType": "address",
          "name": "",
          "type": "address"
        }
      ],
      "stateMutability": "view",
      "type": "function"
    },
    {
      "inputs": [
        {
          "internalType": "address",
          "name": "from",
          "type": "address"
        },
        {
          "internalType": "address",
          "name": "to",
          "type": "address"
        },
        {
          "internalType": "uint256",
          "name": "tokenId",
          "type": "uint256"
        }
      ],
      "name": "safeTransferFrom",
      "outputs": [],
      "stateMutability": "nonpayable",
      "type": "function"
    },
    {
      "inputs": [
        {
          "internalType": "address",
          "name": "from",
          "type": "address"
        },
        {
          "internalType": "address",
          "name": "to",
          "type": "address"
        },
        {
          "internalType": "uint256",
          "name": "tokenId",
          "type": "uint256"
        },
        {
          "internalType": "bytes",
          "name": "_data",
          "type": "bytes"
        }
      ],
      "name": "safeTransferFrom",
      "outputs": [],
      "stateMutability": "nonpayable",
      "type": "function"
    },
    {
      "inputs": [
        {
          "internalType": "address",
          "name": "operator",
          "type": "address"
        },
        {
          "internalType": "bool",
          "name": "approved",
          "type": "bool"
        }
      ],
      "name": "setApprovalForAll",
      "outputs": [],
      "stateMutability": "nonpayable",
      "type": "function"
    },
    {
      "inputs": [
        {
          "internalType": "bytes4",
          "name": "interfaceId",
          "type": "bytes4"
        }
      ],
      "name": "supportsInterface",
      "outputs": [
        {
          "internalType": "bool",
          "name": "",
          "type": "bool"
        }
      ],
      "stateMutability": "view",
      "type": "function"
    },
    {
      "inputs": [],
      "name": "symbol",
      "outputs": [
        {
          "internalType": "string",
          "name": "",
          "type": "string"
        }
      ],
      "stateMutability": "view",
      "type": "function"
    },
    {
      "inputs": [],
      "name": "tokenCount",
      "outputs": [
        {
          "internalType": "uint256",
          "name": "",
          "type": "uint256"
        }
      ],
      "stateMutability": "view",
      "type": "function"
    },
    {
      "inputs": [
        {
          "internalType": "uint256",
          "name": "tokenId",
          "type": "uint256"
        }
      ],
      "name": "tokenURI",
      "outputs": [
        {
          "internalType": "string",
          "name": "",
          "type": "string"
        }
      ],
      "stateMutability": "view",
      "type": "function"
    },
    {
      "inputs": [
        {
          "internalType": "address",
          "name": "from",
          "type": "address"
        },
        {
          "internalType": "address",
          "name": "to",
          "type": "address"
        },
        {
          "internalType": "uint256",
          "name": "tokenId",
          "type": "uint256"
        }
      ],
      "name": "transferFrom",
      "outputs": [],
      "stateMutability": "nonpayable",
      "type": "function"
    }
  ],
  "bytecode": "0x60806040523480156200001157600080fd5b506040518060400160405280600a81526020017f42727574616c204e4654000000000000000000000000000000000000000000008152506040518060400160405280600681526020017f42727574616c0000000000000000000000000000000000000000000000000000815250816000908051906020019062000096929190620000b8565b508060019080519060200190620000af929190620000b8565b505050620001cd565b828054620000c69062000168565b90600052602060002090601f016020900481019282620000ea576000855562000136565b82601f106200010557805160ff191683800117855562000136565b8280016001018555821562000136579182015b828111156200013557825182559160200191906001019062000118565b5b50905062000145919062000149565b5090565b5b80821115620001645760008160009055506001016200014a565b5090565b600060028204905060018216806200018157607f821691505b602082108114156200019857620001976200019e565b5b50919050565b7f4e487b7100000000000000000000000000000000000000000000000000000000600052602260045260246000fd5b61320280620001dd6000396000f3fe608060405234801561001057600080fd5b50600436106101165760003560e01c806370a08231116100a2578063b88d4fde11610071578063b88d4fde146102f3578063bfb231d21461030f578063c87b56dd14610342578063e358ff9914610372578063e985e9c5146103a257610116565b806370a082311461026b57806395d89b411461029b5780639f181b5e146102b9578063a22cb465146102d757610116565b8063095ea7b3116100e9578063095ea7b3146101c957806323b872dd146101e557806342842e0e1461020157806343bc16121461021d5780636352211e1461023b57610116565b806301ffc9a71461011b578063056b01ce1461014b57806306fdde031461017b578063081812fc14610199575b600080fd5b61013560048036038101906101309190612090565b6103d2565b60405161014291906125c7565b60405180910390f35b610165600480360381019061016091906120e2565b6104b4565b6040516101729190612846565b60405180910390f35b6101836105fe565b60405161019091906125e2565b60405180910390f35b6101b360048036038101906101ae9190612136565b610690565b6040516101c09190612560565b60405180910390f35b6101e360048036038101906101de9190612054565b610715565b005b6101ff60048036038101906101fa9190611f4e565b61082d565b005b61021b60048036038101906102169190611f4e565b61088d565b005b6102256108ad565b6040516102329190612560565b60405180910390f35b61025560048036038101906102509190612136565b6108d3565b6040516102629190612560565b60405180910390f35b61028560048036038101906102809190611ee9565b610985565b6040516102929190612846565b60405180910390f35b6102a3610a3d565b6040516102b091906125e2565b60405180910390f35b6102c1610acf565b6040516102ce9190612846565b60405180910390f35b6102f160048036038101906102ec9190612018565b610ad5565b005b61030d60048036038101906103089190611f9d565b610aeb565b005b61032960048036038101906103249190612136565b610b4d565b6040516103399493929190612861565b60405180910390f35b61035c60048036038101906103579190612136565b610c25565b60405161036991906125e2565b60405180910390f35b61038c60048036038101906103879190612136565b610d77565b6040516103999190612824565b60405180910390f35b6103bc60048036038101906103b79190611f12565b610ea0565b6040516103c991906125c7565b60405180910390f35b60007f80ac58cd000000000000000000000000000000000000000000000000000000007bffffffffffffffffffffffffffffffffffffffffffffffffffffffff1916827bffffffffffffffffffffffffffffffffffffffffffffffffffffffff1916148061049d57507f5b5e139f000000000000000000000000000000000000000000000000000000007bffffffffffffffffffffffffffffffffffffffffffffffffffffffff1916827bffffffffffffffffffffffffffffffffffffffffffffffffffffffff1916145b806104ad57506104ac82610f34565b5b9050919050565b6000600a8211156104fa576040517f08c379a00000000000000000000000000000000000000000000000000000000081526004016104f190612804565b60405180910390fd5b6007600081548092919061050d90612b5c565b919050555061051e33600754610f9e565b61052a60075484610fbc565b604051806080016040528060075481526020018381526020013373ffffffffffffffffffffffffffffffffffffffff16815260200184815250600960006007548152602001908152602001600020600082015181600001556020820151816001015560408201518160020160006101000a81548173ffffffffffffffffffffffffffffffffffffffff021916908373ffffffffffffffffffffffffffffffffffffffff16021790555060608201518160030190805190602001906105ef929190611ccf565b50905050600754905092915050565b60606000805461060d90612af9565b80601f016020809104026020016040519081016040528092919081815260200182805461063990612af9565b80156106865780601f1061065b57610100808354040283529160200191610686565b820191906000526020600020905b81548152906001019060200180831161066957829003601f168201915b5050505050905090565b600061069b82611030565b6106da576040517f08c379a00000000000000000000000000000000000000000000000000000000081526004016106d190612784565b60405180910390fd5b6004600083815260200190815260200160002060009054906101000a900473ffffffffffffffffffffffffffffffffffffffff169050919050565b6000610720826108d3565b90508073ffffffffffffffffffffffffffffffffffffffff168373ffffffffffffffffffffffffffffffffffffffff161415610791576040517f08c379a0000000000000000000000000000000000000000000000000000000008152600401610788906127c4565b60405180910390fd5b8073ffffffffffffffffffffffffffffffffffffffff166107b061109c565b73ffffffffffffffffffffffffffffffffffffffff1614806107df57506107de816107d961109c565b610ea0565b5b61081e576040517f08c379a0000000000000000000000000000000000000000000000000000000008152600401610815906126c4565b60405180910390fd5b61082883836110a4565b505050565b61083e61083861109c565b8261115d565b61087d576040517f08c379a0000000000000000000000000000000000000000000000000000000008152600401610874906127e4565b60405180910390fd5b61088883838361123b565b505050565b6108a883838360405180602001604052806000815250610aeb565b505050565b600860009054906101000a900473ffffffffffffffffffffffffffffffffffffffff1681565b6000806002600084815260200190815260200160002060009054906101000a900473ffffffffffffffffffffffffffffffffffffffff169050600073ffffffffffffffffffffffffffffffffffffffff168173ffffffffffffffffffffffffffffffffffffffff16141561097c576040517f08c379a000000000000000000000000000000000000000000000000000000000815260040161097390612704565b60405180910390fd5b80915050919050565b60008073ffffffffffffffffffffffffffffffffffffffff168273ffffffffffffffffffffffffffffffffffffffff1614156109f6576040517f08c379a00000000000000000000000000000000000000000000000000000000081526004016109ed906126e4565b60405180910390fd5b600360008373ffffffffffffffffffffffffffffffffffffffff1673ffffffffffffffffffffffffffffffffffffffff168152602001908152602001600020549050919050565b606060018054610a4c90612af9565b80601f0160208091040260200160405190810160405280929190818152602001828054610a7890612af9565b8015610ac55780601f10610a9a57610100808354040283529160200191610ac5565b820191906000526020600020905b815481529060010190602001808311610aa857829003601f168201915b5050505050905090565b60075481565b610ae7610ae061109c565b83836114a2565b5050565b610afc610af661109c565b8361115d565b610b3b576040517f08c379a0000000000000000000000000000000000000000000000000000000008152600401610b32906127e4565b60405180910390fd5b610b478484848461160f565b50505050565b60096020528060005260406000206000915090508060000154908060010154908060020160009054906101000a900473ffffffffffffffffffffffffffffffffffffffff1690806003018054610ba290612af9565b80601f0160208091040260200160405190810160405280929190818152602001828054610bce90612af9565b8015610c1b5780601f10610bf057610100808354040283529160200191610c1b565b820191906000526020600020905b815481529060010190602001808311610bfe57829003601f168201915b5050505050905084565b6060610c3082611030565b610c6f576040517f08c379a0000000000000000000000000000000000000000000000000000000008152600401610c6690612764565b60405180910390fd5b6000600660008481526020019081526020016000208054610c8f90612af9565b80601f0160208091040260200160405190810160405280929190818152602001828054610cbb90612af9565b8015610d085780601f10610cdd57610100808354040283529160200191610d08565b820191906000526020600020905b815481529060010190602001808311610ceb57829003601f168201915b505050505090506000610d1961166b565b9050600081511415610d2f578192505050610d72565b600082511115610d64578082604051602001610d4c92919061253c565b60405160208183030381529060405292505050610d72565b610d6d84611682565b925050505b919050565b610d7f611d55565b6009600083815260200190815260200160002060405180608001604052908160008201548152602001600182015481526020016002820160009054906101000a900473ffffffffffffffffffffffffffffffffffffffff1673ffffffffffffffffffffffffffffffffffffffff1673ffffffffffffffffffffffffffffffffffffffff168152602001600382018054610e1790612af9565b80601f0160208091040260200160405190810160405280929190818152602001828054610e4390612af9565b8015610e905780601f10610e6557610100808354040283529160200191610e90565b820191906000526020600020905b815481529060010190602001808311610e7357829003601f168201915b5050505050815250509050919050565b6000600560008473ffffffffffffffffffffffffffffffffffffffff1673ffffffffffffffffffffffffffffffffffffffff16815260200190815260200160002060008373ffffffffffffffffffffffffffffffffffffffff1673ffffffffffffffffffffffffffffffffffffffff16815260200190815260200160002060009054906101000a900460ff16905092915050565b60007f01ffc9a7000000000000000000000000000000000000000000000000000000007bffffffffffffffffffffffffffffffffffffffffffffffffffffffff1916827bffffffffffffffffffffffffffffffffffffffffffffffffffffffff1916149050919050565b610fb8828260405180602001604052806000815250611729565b5050565b610fc582611030565b611004576040517f08c379a0000000000000000000000000000000000000000000000000000000008152600401610ffb90612724565b60405180910390fd5b8060066000848152602001908152602001600020908051906020019061102b929190611ccf565b505050565b60008073ffffffffffffffffffffffffffffffffffffffff166002600084815260200190815260200160002060009054906101000a900473ffffffffffffffffffffffffffffffffffffffff1673ffffffffffffffffffffffffffffffffffffffff1614159050919050565b600033905090565b816004600083815260200190815260200160002060006101000a81548173ffffffffffffffffffffffffffffffffffffffff021916908373ffffffffffffffffffffffffffffffffffffffff160217905550808273ffffffffffffffffffffffffffffffffffffffff16611117836108d3565b73ffffffffffffffffffffffffffffffffffffffff167f8c5be1e5ebec7d5bd14f71427d1e84f3dd0314c0f7b2291e5b200ac8c7c3b92560405160405180910390a45050565b600061116882611030565b6111a7576040517f08c379a000000000000000000000000000000000000000000000000000000000815260040161119e906126a4565b60405180910390fd5b60006111b2836108d3565b90508073ffffffffffffffffffffffffffffffffffffffff168473ffffffffffffffffffffffffffffffffffffffff16148061122157508373ffffffffffffffffffffffffffffffffffffffff1661120984610690565b73ffffffffffffffffffffffffffffffffffffffff16145b8061123257506112318185610ea0565b5b91505092915050565b8273ffffffffffffffffffffffffffffffffffffffff1661125b826108d3565b73ffffffffffffffffffffffffffffffffffffffff16146112b1576040517f08c379a00000000000000000000000000000000000000000000000000000000081526004016112a890612624565b60405180910390fd5b600073ffffffffffffffffffffffffffffffffffffffff168273ffffffffffffffffffffffffffffffffffffffff161415611321576040517f08c379a000000000000000000000000000000000000000000000000000000000815260040161131890612664565b60405180910390fd5b61132c838383611784565b6113376000826110a4565b6001600360008573ffffffffffffffffffffffffffffffffffffffff1673ffffffffffffffffffffffffffffffffffffffff16815260200190815260200160002060008282546113879190612a0f565b925050819055506001600360008473ffffffffffffffffffffffffffffffffffffffff1673ffffffffffffffffffffffffffffffffffffffff16815260200190815260200160002060008282546113de9190612988565b92505081905550816002600083815260200190815260200160002060006101000a81548173ffffffffffffffffffffffffffffffffffffffff021916908373ffffffffffffffffffffffffffffffffffffffff160217905550808273ffffffffffffffffffffffffffffffffffffffff168473ffffffffffffffffffffffffffffffffffffffff167fddf252ad1be2c89b69c2b068fc378daa952ba7f163c4a11628f55a4df523b3ef60405160405180910390a461149d838383611789565b505050565b8173ffffffffffffffffffffffffffffffffffffffff168373ffffffffffffffffffffffffffffffffffffffff161415611511576040517f08c379a000000000000000000000000000000000000000000000000000000000815260040161150890612684565b60405180910390fd5b80600560008573ffffffffffffffffffffffffffffffffffffffff1673ffffffffffffffffffffffffffffffffffffffff16815260200190815260200160002060008473ffffffffffffffffffffffffffffffffffffffff1673ffffffffffffffffffffffffffffffffffffffff16815260200190815260200160002060006101000a81548160ff0219169083151502179055508173ffffffffffffffffffffffffffffffffffffffff168373ffffffffffffffffffffffffffffffffffffffff167f17307eab39ab6107e8899845ad3d59bd9653f200f220920489ca2b5937696c318360405161160291906125c7565b60405180910390a3505050565b61161a84848461123b565b6116268484848461178e565b611665576040517f08c379a000000000000000000000000000000000000000000000000000000000815260040161165c90612604565b60405180910390fd5b50505050565b606060405180602001604052806000815250905090565b606061168d82611030565b6116cc576040517f08c379a00000000000000000000000000000000000000000000000000000000081526004016116c3906127a4565b60405180910390fd5b60006116d661166b565b905060008151116116f65760405180602001604052806000815250611721565b8061170084611925565b60405160200161171192919061253c565b6040516020818303038152906040525b915050919050565b6117338383611ad2565b611740600084848461178e565b61177f576040517f08c379a000000000000000000000000000000000000000000000000000000000815260040161177690612604565b60405180910390fd5b505050565b505050565b505050565b60006117af8473ffffffffffffffffffffffffffffffffffffffff16611cac565b15611918578373ffffffffffffffffffffffffffffffffffffffff1663150b7a026117d861109c565b8786866040518563ffffffff1660e01b81526004016117fa949392919061257b565b602060405180830381600087803b15801561181457600080fd5b505af192505050801561184557506040513d601f19601f8201168201806040525081019061184291906120b9565b60015b6118c8573d8060008114611875576040519150601f19603f3d011682016040523d82523d6000602084013e61187a565b606091505b506000815114156118c0576040517f08c379a00000000000000000000000000000000000000000000000000000000081526004016118b790612604565b60405180910390fd5b805181602001fd5b63150b7a0260e01b7bffffffffffffffffffffffffffffffffffffffffffffffffffffffff1916817bffffffffffffffffffffffffffffffffffffffffffffffffffffffff19161491505061191d565b600190505b949350505050565b6060600082141561196d576040518060400160405280600181526020017f30000000000000000000000000000000000000000000000000000000000000008152509050611acd565b600082905060005b6000821461199f57808061198890612b5c565b915050600a8261199891906129de565b9150611975565b60008167ffffffffffffffff8111156119e1577f4e487b7100000000000000000000000000000000000000000000000000000000600052604160045260246000fd5b6040519080825280601f01601f191660200182016040528015611a135781602001600182028036833780820191505090505b5090505b60008514611ac657600182611a2c9190612a0f565b9150600a85611a3b9190612ba5565b6030611a479190612988565b60f81b818381518110611a83577f4e487b7100000000000000000000000000000000000000000000000000000000600052603260045260246000fd5b60200101907effffffffffffffffffffffffffffffffffffffffffffffffffffffffffffff1916908160001a905350600a85611abf91906129de565b9450611a17565b8093505050505b919050565b600073ffffffffffffffffffffffffffffffffffffffff168273ffffffffffffffffffffffffffffffffffffffff161415611b42576040517f08c379a0000000000000000000000000000000000000000000000000000000008152600401611b3990612744565b60405180910390fd5b611b4b81611030565b15611b8b576040517f08c379a0000000000000000000000000000000000000000000000000000000008152600401611b8290612644565b60405180910390fd5b611b9760008383611784565b6001600360008473ffffffffffffffffffffffffffffffffffffffff1673ffffffffffffffffffffffffffffffffffffffff1681526020019081526020016000206000828254611be79190612988565b92505081905550816002600083815260200190815260200160002060006101000a81548173ffffffffffffffffffffffffffffffffffffffff021916908373ffffffffffffffffffffffffffffffffffffffff160217905550808273ffffffffffffffffffffffffffffffffffffffff16600073ffffffffffffffffffffffffffffffffffffffff167fddf252ad1be2c89b69c2b068fc378daa952ba7f163c4a11628f55a4df523b3ef60405160405180910390a4611ca860008383611789565b5050565b6000808273ffffffffffffffffffffffffffffffffffffffff163b119050919050565b828054611cdb90612af9565b90600052602060002090601f016020900481019282611cfd5760008555611d44565b82601f10611d1657805160ff1916838001178555611d44565b82800160010185558215611d44579182015b82811115611d43578251825591602001919060010190611d28565b5b509050611d519190611d93565b5090565b60405180608001604052806000815260200160008152602001600073ffffffffffffffffffffffffffffffffffffffff168152602001606081525090565b5b80821115611dac576000816000905550600101611d94565b5090565b6000611dc3611dbe846128d2565b6128ad565b905082815260208101848484011115611ddb57600080fd5b611de6848285612ab7565b509392505050565b6000611e01611dfc84612903565b6128ad565b905082815260208101848484011115611e1957600080fd5b611e24848285612ab7565b509392505050565b600081359050611e3b81613170565b92915050565b600081359050611e5081613187565b92915050565b600081359050611e658161319e565b92915050565b600081519050611e7a8161319e565b92915050565b600082601f830112611e9157600080fd5b8135611ea1848260208601611db0565b91505092915050565b600082601f830112611ebb57600080fd5b8135611ecb848260208601611dee565b91505092915050565b600081359050611ee3816131b5565b92915050565b600060208284031215611efb57600080fd5b6000611f0984828501611e2c565b91505092915050565b60008060408385031215611f2557600080fd5b6000611f3385828601611e2c565b9250506020611f4485828601611e2c565b9150509250929050565b600080600060608486031215611f6357600080fd5b6000611f7186828701611e2c565b9350506020611f8286828701611e2c565b9250506040611f9386828701611ed4565b9150509250925092565b60008060008060808587031215611fb357600080fd5b6000611fc187828801611e2c565b9450506020611fd287828801611e2c565b9350506040611fe387828801611ed4565b925050606085013567ffffffffffffffff81111561200057600080fd5b61200c87828801611e80565b91505092959194509250565b6000806040838503121561202b57600080fd5b600061203985828601611e2c565b925050602061204a85828601611e41565b9150509250929050565b6000806040838503121561206757600080fd5b600061207585828601611e2c565b925050602061208685828601611ed4565b9150509250929050565b6000602082840312156120a257600080fd5b60006120b084828501611e56565b91505092915050565b6000602082840312156120cb57600080fd5b60006120d984828501611e6b565b91505092915050565b600080604083850312156120f557600080fd5b600083013567ffffffffffffffff81111561210f57600080fd5b61211b85828601611eaa565b925050602061212c85828601611ed4565b9150509250929050565b60006020828403121561214857600080fd5b600061215684828501611ed4565b91505092915050565b61216881612a43565b82525050565b61217781612a43565b82525050565b61218681612a55565b82525050565b600061219782612934565b6121a1818561294a565b93506121b1818560208601612ac6565b6121ba81612c92565b840191505092915050565b60006121d08261293f565b6121da818561295b565b93506121ea818560208601612ac6565b6121f381612c92565b840191505092915050565b60006122098261293f565b612213818561296c565b9350612223818560208601612ac6565b61222c81612c92565b840191505092915050565b60006122428261293f565b61224c818561297d565b935061225c818560208601612ac6565b80840191505092915050565b600061227560328361296c565b915061228082612ca3565b604082019050919050565b600061229860258361296c565b91506122a382612cf2565b604082019050919050565b60006122bb601c8361296c565b91506122c682612d41565b602082019050919050565b60006122de60248361296c565b91506122e982612d6a565b604082019050919050565b600061230160198361296c565b915061230c82612db9565b602082019050919050565b6000612324602c8361296c565b915061232f82612de2565b604082019050919050565b600061234760388361296c565b915061235282612e31565b604082019050919050565b600061236a602a8361296c565b915061237582612e80565b604082019050919050565b600061238d60298361296c565b915061239882612ecf565b604082019050919050565b60006123b0602e8361296c565b91506123bb82612f1e565b604082019050919050565b60006123d360208361296c565b91506123de82612f6d565b602082019050919050565b60006123f660318361296c565b915061240182612f96565b604082019050919050565b6000612419602c8361296c565b915061242482612fe5565b604082019050919050565b600061243c602f8361296c565b915061244782613034565b604082019050919050565b600061245f60218361296c565b915061246a82613083565b604082019050919050565b600061248260318361296c565b915061248d826130d2565b604082019050919050565b60006124a560228361296c565b91506124b082613121565b604082019050919050565b60006080830160008301516124d3600086018261251e565b5060208301516124e6602086018261251e565b5060408301516124f9604086018261215f565b506060830151848203606086015261251182826121c5565b9150508091505092915050565b61252781612aad565b82525050565b61253681612aad565b82525050565b60006125488285612237565b91506125548284612237565b91508190509392505050565b6000602082019050612575600083018461216e565b92915050565b6000608082019050612590600083018761216e565b61259d602083018661216e565b6125aa604083018561252d565b81810360608301526125bc818461218c565b905095945050505050565b60006020820190506125dc600083018461217d565b92915050565b600060208201905081810360008301526125fc81846121fe565b905092915050565b6000602082019050818103600083015261261d81612268565b9050919050565b6000602082019050818103600083015261263d8161228b565b9050919050565b6000602082019050818103600083015261265d816122ae565b9050919050565b6000602082019050818103600083015261267d816122d1565b9050919050565b6000602082019050818103600083015261269d816122f4565b9050919050565b600060208201905081810360008301526126bd81612317565b9050919050565b600060208201905081810360008301526126dd8161233a565b9050919050565b600060208201905081810360008301526126fd8161235d565b9050919050565b6000602082019050818103600083015261271d81612380565b9050919050565b6000602082019050818103600083015261273d816123a3565b9050919050565b6000602082019050818103600083015261275d816123c6565b9050919050565b6000602082019050818103600083015261277d816123e9565b9050919050565b6000602082019050818103600083015261279d8161240c565b9050919050565b600060208201905081810360008301526127bd8161242f565b9050919050565b600060208201905081810360008301526127dd81612452565b9050919050565b600060208201905081810360008301526127fd81612475565b9050919050565b6000602082019050818103600083015261281d81612498565b9050919050565b6000602082019050818103600083015261283e81846124bb565b905092915050565b600060208201905061285b600083018461252d565b92915050565b6000608082019050612876600083018761252d565b612883602083018661252d565b612890604083018561216e565b81810360608301526128a281846121fe565b905095945050505050565b60006128b76128c8565b90506128c38282612b2b565b919050565b6000604051905090565b600067ffffffffffffffff8211156128ed576128ec612c63565b5b6128f682612c92565b9050602081019050919050565b600067ffffffffffffffff82111561291e5761291d612c63565b5b61292782612c92565b9050602081019050919050565b600081519050919050565b600081519050919050565b600082825260208201905092915050565b600082825260208201905092915050565b600082825260208201905092915050565b600081905092915050565b600061299382612aad565b915061299e83612aad565b9250827fffffffffffffffffffffffffffffffffffffffffffffffffffffffffffffffff038211156129d3576129d2612bd6565b5b828201905092915050565b60006129e982612aad565b91506129f483612aad565b925082612a0457612a03612c05565b5b828204905092915050565b6000612a1a82612aad565b9150612a2583612aad565b925082821015612a3857612a37612bd6565b5b828203905092915050565b6000612a4e82612a8d565b9050919050565b60008115159050919050565b60007fffffffff0000000000000000000000000000000000000000000000000000000082169050919050565b600073ffffffffffffffffffffffffffffffffffffffff82169050919050565b6000819050919050565b82818337600083830152505050565b60005b83811015612ae4578082015181840152602081019050612ac9565b83811115612af3576000848401525b50505050565b60006002820490506001821680612b1157607f821691505b60208210811415612b2557612b24612c34565b5b50919050565b612b3482612c92565b810181811067ffffffffffffffff82111715612b5357612b52612c63565b5b80604052505050565b6000612b6782612aad565b91507fffffffffffffffffffffffffffffffffffffffffffffffffffffffffffffffff821415612b9a57612b99612bd6565b5b600182019050919050565b6000612bb082612aad565b9150612bbb83612aad565b925082612bcb57612bca612c05565b5b828206905092915050565b7f4e487b7100000000000000000000000000000000000000000000000000000000600052601160045260246000fd5b7f4e487b7100000000000000000000000000000000000000000000000000000000600052601260045260246000fd5b7f4e487b7100000000000000000000000000000000000000000000000000000000600052602260045260246000fd5b7f4e487b7100000000000000000000000000000000000000000000000000000000600052604160045260246000fd5b6000601f19601f8301169050919050565b7f4552433732313a207472616e7366657220746f206e6f6e20455243373231526560008201527f63656976657220696d706c656d656e7465720000000000000000000000000000602082015250565b7f4552433732313a207472616e736665722066726f6d20696e636f72726563742060008201527f6f776e6572000000000000000000000000000000000000000000000000000000602082015250565b7f4552433732313a20746f6b656e20616c7265616479206d696e74656400000000600082015250565b7f4552433732313a207472616e7366657220746f20746865207a65726f2061646460008201527f7265737300000000000000000000000000000000000000000000000000000000602082015250565b7f4552433732313a20617070726f766520746f2063616c6c657200000000000000600082015250565b7f4552433732313a206f70657261746f7220717565727920666f72206e6f6e657860008201527f697374656e7420746f6b656e0000000000000000000000000000000000000000602082015250565b7f4552433732313a20617070726f76652063616c6c6572206973206e6f74206f7760008201527f6e6572206e6f7220617070726f76656420666f7220616c6c0000000000000000602082015250565b7f4552433732313a2062616c616e636520717565727920666f7220746865207a6560008201527f726f206164647265737300000000000000000000000000000000000000000000602082015250565b7f4552433732313a206f776e657220717565727920666f72206e6f6e657869737460008201527f656e7420746f6b656e0000000000000000000000000000000000000000000000602082015250565b7f45524337323155524953746f726167653a2055524920736574206f66206e6f6e60008201527f6578697374656e7420746f6b656e000000000000000000000000000000000000602082015250565b7f4552433732313a206d696e7420746f20746865207a65726f2061646472657373600082015250565b7f45524337323155524953746f726167653a2055524920717565727920666f722060008201527f6e6f6e6578697374656e7420746f6b656e000000000000000000000000000000602082015250565b7f4552433732313a20617070726f76656420717565727920666f72206e6f6e657860008201527f697374656e7420746f6b656e0000000000000000000000000000000000000000602082015250565b7f4552433732314d657461646174613a2055524920717565727920666f72206e6f60008201527f6e6578697374656e7420746f6b656e0000000000000000000000000000000000602082015250565b7f4552433732313a20617070726f76616c20746f2063757272656e74206f776e6560008201527f7200000000000000000000000000000000000000000000000000000000000000602082015250565b7f4552433732313a207472616e736665722063616c6c6572206973206e6f74206f60008201527f776e6572206e6f7220617070726f766564000000000000000000000000000000602082015250565b7f54686520726f79616c7469657320697320746f6f20686967682021204772656560008201527f6479000000000000000000000000000000000000000000000000000000000000602082015250565b61317981612a43565b811461318457600080fd5b50565b61319081612a55565b811461319b57600080fd5b50565b6131a781612a61565b81146131b257600080fd5b50565b6131be81612aad565b81146131c957600080fd5b5056fea2646970667358221220549c336d8d3cb0683dee6dc0fff27b5f97efba5c9a51fb5ddc76bdf6c197aef164736f6c63430008040033",
  "linkReferences": {},
  "deployedLinkReferences": {}
}